{
  "_format": "hh-sol-artifact-1",
  "contractName": "NFTMarketplace",
  "sourceName": "contracts/NFTMartketplace.sol",
  "abi": [
    {
      "inputs": [],
      "stateMutability": "nonpayable",
      "type": "constructor"
    },
    {
      "anonymous": false,
      "inputs": [
        {
          "indexed": true,
          "internalType": "address",
          "name": "owner",
          "type": "address"
        },
        {
          "indexed": true,
          "internalType": "address",
          "name": "approved",
          "type": "address"
        },
        {
          "indexed": true,
          "internalType": "uint256",
          "name": "tokenId",
          "type": "uint256"
        }
      ],
      "name": "Approval",
      "type": "event"
    },
    {
      "anonymous": false,
      "inputs": [
        {
          "indexed": true,
          "internalType": "address",
          "name": "owner",
          "type": "address"
        },
        {
          "indexed": true,
          "internalType": "address",
          "name": "operator",
          "type": "address"
        },
        {
          "indexed": false,
          "internalType": "bool",
          "name": "approved",
          "type": "bool"
        }
      ],
      "name": "ApprovalForAll",
      "type": "event"
    },
    {
      "anonymous": false,
      "inputs": [
        {
          "indexed": true,
          "internalType": "uint256",
          "name": "tokenId",
          "type": "uint256"
        },
        {
          "indexed": false,
          "internalType": "address",
          "name": "seller",
          "type": "address"
        },
        {
          "indexed": false,
          "internalType": "address",
          "name": "owner",
          "type": "address"
        },
        {
          "indexed": false,
          "internalType": "uint256",
          "name": "price",
          "type": "uint256"
        },
        {
          "indexed": false,
          "internalType": "bool",
          "name": "sold",
          "type": "bool"
        }
      ],
      "name": "MarketItemCreated",
      "type": "event"
    },
    {
      "anonymous": false,
      "inputs": [
        {
          "indexed": true,
          "internalType": "address",
          "name": "from",
          "type": "address"
        },
        {
          "indexed": true,
          "internalType": "address",
          "name": "to",
          "type": "address"
        },
        {
          "indexed": true,
          "internalType": "uint256",
          "name": "tokenId",
          "type": "uint256"
        }
      ],
      "name": "Transfer",
      "type": "event"
    },
    {
      "inputs": [
        {
          "internalType": "address",
          "name": "to",
          "type": "address"
        },
        {
          "internalType": "uint256",
          "name": "tokenId",
          "type": "uint256"
        }
      ],
      "name": "approve",
      "outputs": [],
      "stateMutability": "nonpayable",
      "type": "function"
    },
    {
      "inputs": [
        {
          "internalType": "address",
          "name": "owner",
          "type": "address"
        }
      ],
      "name": "balanceOf",
      "outputs": [
        {
          "internalType": "uint256",
          "name": "",
          "type": "uint256"
        }
      ],
      "stateMutability": "view",
      "type": "function"
    },
    {
      "inputs": [
        {
          "internalType": "uint256",
          "name": "tokenId",
          "type": "uint256"
        }
      ],
      "name": "createMarketSale",
      "outputs": [],
      "stateMutability": "payable",
      "type": "function"
    },
    {
      "inputs": [
        {
          "internalType": "string",
          "name": "tokenURI",
          "type": "string"
        },
        {
          "internalType": "uint256",
          "name": "price",
          "type": "uint256"
        }
      ],
      "name": "createToken",
      "outputs": [
        {
          "internalType": "uint256",
          "name": "",
          "type": "uint256"
        }
      ],
      "stateMutability": "payable",
      "type": "function"
    },
    {
      "inputs": [],
      "name": "fetchItemsListed",
      "outputs": [
        {
          "components": [
            {
              "internalType": "uint256",
              "name": "tokenId",
              "type": "uint256"
            },
            {
              "internalType": "address payable",
              "name": "seller",
              "type": "address"
            },
            {
              "internalType": "address payable",
              "name": "owner",
              "type": "address"
            },
            {
              "internalType": "uint256",
              "name": "price",
              "type": "uint256"
            },
            {
              "internalType": "bool",
              "name": "sold",
              "type": "bool"
            }
          ],
          "internalType": "struct NFTMarketplace.MarketItem[]",
          "name": "",
          "type": "tuple[]"
        }
      ],
      "stateMutability": "view",
      "type": "function"
    },
    {
      "inputs": [],
      "name": "fetchMarketItems",
      "outputs": [
        {
          "components": [
            {
              "internalType": "uint256",
              "name": "tokenId",
              "type": "uint256"
            },
            {
              "internalType": "address payable",
              "name": "seller",
              "type": "address"
            },
            {
              "internalType": "address payable",
              "name": "owner",
              "type": "address"
            },
            {
              "internalType": "uint256",
              "name": "price",
              "type": "uint256"
            },
            {
              "internalType": "bool",
              "name": "sold",
              "type": "bool"
            }
          ],
          "internalType": "struct NFTMarketplace.MarketItem[]",
          "name": "",
          "type": "tuple[]"
        }
      ],
      "stateMutability": "view",
      "type": "function"
    },
    {
      "inputs": [],
      "name": "fetchMyNFTs",
      "outputs": [
        {
          "components": [
            {
              "internalType": "uint256",
              "name": "tokenId",
              "type": "uint256"
            },
            {
              "internalType": "address payable",
              "name": "seller",
              "type": "address"
            },
            {
              "internalType": "address payable",
              "name": "owner",
              "type": "address"
            },
            {
              "internalType": "uint256",
              "name": "price",
              "type": "uint256"
            },
            {
              "internalType": "bool",
              "name": "sold",
              "type": "bool"
            }
          ],
          "internalType": "struct NFTMarketplace.MarketItem[]",
          "name": "",
          "type": "tuple[]"
        }
      ],
      "stateMutability": "view",
      "type": "function"
    },
    {
      "inputs": [],
      "name": "fetchSoldItems",
      "outputs": [
        {
          "components": [
            {
              "internalType": "uint256",
              "name": "tokenId",
              "type": "uint256"
            },
            {
              "internalType": "address payable",
              "name": "seller",
              "type": "address"
            },
            {
              "internalType": "address payable",
              "name": "owner",
              "type": "address"
            },
            {
              "internalType": "uint256",
              "name": "price",
              "type": "uint256"
            },
            {
              "internalType": "bool",
              "name": "sold",
              "type": "bool"
            }
          ],
          "internalType": "struct NFTMarketplace.MarketItem[]",
          "name": "",
          "type": "tuple[]"
        }
      ],
      "stateMutability": "view",
      "type": "function"
    },
    {
      "inputs": [
        {
          "internalType": "uint256",
          "name": "tokenId",
          "type": "uint256"
        }
      ],
      "name": "getApproved",
      "outputs": [
        {
          "internalType": "address",
          "name": "",
          "type": "address"
        }
      ],
      "stateMutability": "view",
      "type": "function"
    },
    {
      "inputs": [],
      "name": "getListingPrice",
      "outputs": [
        {
          "internalType": "uint256",
          "name": "",
          "type": "uint256"
        }
      ],
      "stateMutability": "view",
      "type": "function"
    },
    {
      "inputs": [
        {
          "internalType": "address",
          "name": "owner",
          "type": "address"
        },
        {
          "internalType": "address",
          "name": "operator",
          "type": "address"
        }
      ],
      "name": "isApprovedForAll",
      "outputs": [
        {
          "internalType": "bool",
          "name": "",
          "type": "bool"
        }
      ],
      "stateMutability": "view",
      "type": "function"
    },
    {
      "inputs": [],
      "name": "name",
      "outputs": [
        {
          "internalType": "string",
          "name": "",
          "type": "string"
        }
      ],
      "stateMutability": "view",
      "type": "function"
    },
    {
      "inputs": [
        {
          "internalType": "uint256",
          "name": "tokenId",
          "type": "uint256"
        }
      ],
      "name": "ownerOf",
      "outputs": [
        {
          "internalType": "address",
          "name": "",
          "type": "address"
        }
      ],
      "stateMutability": "view",
      "type": "function"
    },
    {
      "inputs": [
        {
          "internalType": "uint256",
          "name": "tokenId",
          "type": "uint256"
        },
        {
          "internalType": "uint256",
          "name": "price",
          "type": "uint256"
        }
      ],
      "name": "resellToken",
      "outputs": [],
      "stateMutability": "payable",
      "type": "function"
    },
    {
      "inputs": [
        {
          "internalType": "address",
          "name": "from",
          "type": "address"
        },
        {
          "internalType": "address",
          "name": "to",
          "type": "address"
        },
        {
          "internalType": "uint256",
          "name": "tokenId",
          "type": "uint256"
        }
      ],
      "name": "safeTransferFrom",
      "outputs": [],
      "stateMutability": "nonpayable",
      "type": "function"
    },
    {
      "inputs": [
        {
          "internalType": "address",
          "name": "from",
          "type": "address"
        },
        {
          "internalType": "address",
          "name": "to",
          "type": "address"
        },
        {
          "internalType": "uint256",
          "name": "tokenId",
          "type": "uint256"
        },
        {
          "internalType": "bytes",
          "name": "_data",
          "type": "bytes"
        }
      ],
      "name": "safeTransferFrom",
      "outputs": [],
      "stateMutability": "nonpayable",
      "type": "function"
    },
    {
      "inputs": [
        {
          "internalType": "address",
          "name": "operator",
          "type": "address"
        },
        {
          "internalType": "bool",
          "name": "approved",
          "type": "bool"
        }
      ],
      "name": "setApprovalForAll",
      "outputs": [],
      "stateMutability": "nonpayable",
      "type": "function"
    },
    {
      "inputs": [
        {
          "internalType": "bytes4",
          "name": "interfaceId",
          "type": "bytes4"
        }
      ],
      "name": "supportsInterface",
      "outputs": [
        {
          "internalType": "bool",
          "name": "",
          "type": "bool"
        }
      ],
      "stateMutability": "view",
      "type": "function"
    },
    {
      "inputs": [],
      "name": "symbol",
      "outputs": [
        {
          "internalType": "string",
          "name": "",
          "type": "string"
        }
      ],
      "stateMutability": "view",
      "type": "function"
    },
    {
      "inputs": [
        {
          "internalType": "uint256",
          "name": "tokenId",
          "type": "uint256"
        }
      ],
      "name": "tokenURI",
      "outputs": [
        {
          "internalType": "string",
          "name": "",
          "type": "string"
        }
      ],
      "stateMutability": "view",
      "type": "function"
    },
    {
      "inputs": [
        {
          "internalType": "address",
          "name": "from",
          "type": "address"
        },
        {
          "internalType": "address",
          "name": "to",
          "type": "address"
        },
        {
          "internalType": "uint256",
          "name": "tokenId",
          "type": "uint256"
        }
      ],
      "name": "transferFrom",
      "outputs": [],
      "stateMutability": "nonpayable",
      "type": "function"
    },
    {
      "inputs": [
        {
          "internalType": "uint256",
          "name": "_listingPrice",
          "type": "uint256"
        }
      ],
      "name": "updateListingPrice",
      "outputs": [],
      "stateMutability": "payable",
      "type": "function"
    }
  ],
  "bytecode": "0x608060405260006009553480156200001657600080fd5b506040518060400160405280601081526020017f4d657461766572736520546f6b656e73000000000000000000000000000000008152506040518060400160405280600481526020017f4d4554540000000000000000000000000000000000000000000000000000000081525081600090805190602001906200009b929190620000fe565b508060019080519060200190620000b4929190620000fe565b50505033600a60006101000a81548173ffffffffffffffffffffffffffffffffffffffff021916908373ffffffffffffffffffffffffffffffffffffffff16021790555062000213565b8280546200010c90620001ae565b90600052602060002090601f0160209004810192826200013057600085556200017c565b82601f106200014b57805160ff19168380011785556200017c565b828001600101855582156200017c579182015b828111156200017b5782518255916020019190600101906200015e565b5b5090506200018b91906200018f565b5090565b5b80821115620001aa57600081600090555060010162000190565b5090565b60006002820490506001821680620001c757607f821691505b60208210811415620001de57620001dd620001e4565b5b50919050565b7f4e487b7100000000000000000000000000000000000000000000000000000000600052602260045260246000fd5b61463880620002236000396000f3fe6080604052600436106101355760003560e01c806370a08231116100ab578063b88d4fde1161006f578063b88d4fde14610420578063be9af53614610449578063c87b56dd14610465578063c89f2cce146104a2578063e219fc75146104cd578063e985e9c5146104e957610135565b806370a082311461034357806372b3b6201461038057806395d89b41146103b0578063a22cb465146103db578063ae677aa31461040457610135565b806312e85585116100fd57806312e8558514610233578063202e37401461025e57806323b872dd1461028957806342842e0e146102b257806345f8fa80146102db5780636352211e1461030657610135565b806301ffc9a71461013a57806306fdde0314610177578063081812fc146101a2578063095ea7b3146101df5780630f08efe014610208575b600080fd5b34801561014657600080fd5b50610161600480360381019061015c9190613178565b610526565b60405161016e9190613852565b60405180910390f35b34801561018357600080fd5b5061018c610608565b604051610199919061386d565b60405180910390f35b3480156101ae57600080fd5b506101c960048036038101906101c4919061321e565b61069a565b6040516101d69190613784565b60405180910390f35b3480156101eb57600080fd5b506102066004803603810190610201919061313c565b61071f565b005b34801561021457600080fd5b5061021d610837565b60405161022a9190613830565b60405180910390f35b34801561023f57600080fd5b50610248610aec565b6040516102559190613b4f565b60405180910390f35b34801561026a57600080fd5b50610273610af6565b6040516102809190613830565b60405180910390f35b34801561029557600080fd5b506102b060048036038101906102ab9190613036565b610e30565b005b3480156102be57600080fd5b506102d960048036038101906102d49190613036565b610e90565b005b3480156102e757600080fd5b506102f0610eb0565b6040516102fd9190613830565b60405180910390f35b34801561031257600080fd5b5061032d6004803603810190610328919061321e565b6111ea565b60405161033a9190613784565b60405180910390f35b34801561034f57600080fd5b5061036a60048036038101906103659190612fd1565b61129c565b6040516103779190613b4f565b60405180910390f35b61039a600480360381019061039591906131ca565b611354565b6040516103a79190613b4f565b60405180910390f35b3480156103bc57600080fd5b506103c5611396565b6040516103d2919061386d565b60405180910390f35b3480156103e757600080fd5b5061040260048036038101906103fd9190613100565b611428565b005b61041e6004803603810190610419919061321e565b61143e565b005b34801561042c57600080fd5b5061044760048036038101906104429190613085565b6114d8565b005b610463600480360381019061045e919061321e565b61153a565b005b34801561047157600080fd5b5061048c6004803603810190610487919061321e565b611778565b604051610499919061386d565b60405180910390f35b3480156104ae57600080fd5b506104b76118ca565b6040516104c49190613830565b60405180910390f35b6104e760048036038101906104e29190613247565b611b6a565b005b3480156104f557600080fd5b50610510600480360381019061050b9190612ffa565b611d5f565b60405161051d9190613852565b60405180910390f35b60007f80ac58cd000000000000000000000000000000000000000000000000000000007bffffffffffffffffffffffffffffffffffffffffffffffffffffffff1916827bffffffffffffffffffffffffffffffffffffffffffffffffffffffff191614806105f157507f5b5e139f000000000000000000000000000000000000000000000000000000007bffffffffffffffffffffffffffffffffffffffffffffffffffffffff1916827bffffffffffffffffffffffffffffffffffffffffffffffffffffffff1916145b80610601575061060082611df3565b5b9050919050565b60606000805461061790613df0565b80601f016020809104026020016040519081016040528092919081815260200182805461064390613df0565b80156106905780601f1061066557610100808354040283529160200191610690565b820191906000526020600020905b81548152906001019060200180831161067357829003601f168201915b5050505050905090565b60006106a582611e5d565b6106e4576040517f08c379a00000000000000000000000000000000000000000000000000000000081526004016106db90613a8f565b60405180910390fd5b6004600083815260200190815260200160002060009054906101000a900473ffffffffffffffffffffffffffffffffffffffff169050919050565b600061072a826111ea565b90508073ffffffffffffffffffffffffffffffffffffffff168373ffffffffffffffffffffffffffffffffffffffff16141561079b576040517f08c379a000000000000000000000000000000000000000000000000000000000815260040161079290613acf565b60405180910390fd5b8073ffffffffffffffffffffffffffffffffffffffff166107ba611ec9565b73ffffffffffffffffffffffffffffffffffffffff1614806107e957506107e8816107e3611ec9565b611d5f565b5b610828576040517f08c379a000000000000000000000000000000000000000000000000000000000815260040161081f9061398f565b60405180910390fd5b6108328383611ed1565b505050565b606060006108456007611f8a565b905060006108536008611f8a565b61085d6007611f8a565b6108679190613cf4565b90506000808267ffffffffffffffff8111156108ac577f4e487b7100000000000000000000000000000000000000000000000000000000600052604160045260246000fd5b6040519080825280602002602001820160405280156108e557816020015b6108d2612d98565b8152602001906001900390816108ca5790505b50905060005b84811015610ae1573073ffffffffffffffffffffffffffffffffffffffff16600b600060018461091b9190613c6d565b815260200190815260200160002060020160009054906101000a900473ffffffffffffffffffffffffffffffffffffffff1673ffffffffffffffffffffffffffffffffffffffff161415610ace5760006001826109789190613c6d565b90506000600b60008381526020019081526020016000209050806040518060a0016040529081600082015481526020016001820160009054906101000a900473ffffffffffffffffffffffffffffffffffffffff1673ffffffffffffffffffffffffffffffffffffffff1673ffffffffffffffffffffffffffffffffffffffff1681526020016002820160009054906101000a900473ffffffffffffffffffffffffffffffffffffffff1673ffffffffffffffffffffffffffffffffffffffff1673ffffffffffffffffffffffffffffffffffffffff168152602001600382015481526020016004820160009054906101000a900460ff161515151581525050848681518110610ab1577f4e487b7100000000000000000000000000000000000000000000000000000000600052603260045260246000fd5b6020026020010181905250600185610ac99190613c6d565b945050505b8080610ad990613e53565b9150506108eb565b508094505050505090565b6000600954905090565b60606000610b046007611f8a565b905060008060005b83811015610bad573373ffffffffffffffffffffffffffffffffffffffff16600b6000600184610b3c9190613c6d565b815260200190815260200160002060020160009054906101000a900473ffffffffffffffffffffffffffffffffffffffff1673ffffffffffffffffffffffffffffffffffffffff161415610b9a57600183610b979190613c6d565b92505b8080610ba590613e53565b915050610b0c565b5060008267ffffffffffffffff811115610bf0577f4e487b7100000000000000000000000000000000000000000000000000000000600052604160045260246000fd5b604051908082528060200260200182016040528015610c2957816020015b610c16612d98565b815260200190600190039081610c0e5790505b50905060005b84811015610e25573373ffffffffffffffffffffffffffffffffffffffff16600b6000600184610c5f9190613c6d565b815260200190815260200160002060020160009054906101000a900473ffffffffffffffffffffffffffffffffffffffff1673ffffffffffffffffffffffffffffffffffffffff161415610e12576000600182610cbc9190613c6d565b90506000600b60008381526020019081526020016000209050806040518060a0016040529081600082015481526020016001820160009054906101000a900473ffffffffffffffffffffffffffffffffffffffff1673ffffffffffffffffffffffffffffffffffffffff1673ffffffffffffffffffffffffffffffffffffffff1681526020016002820160009054906101000a900473ffffffffffffffffffffffffffffffffffffffff1673ffffffffffffffffffffffffffffffffffffffff1673ffffffffffffffffffffffffffffffffffffffff168152602001600382015481526020016004820160009054906101000a900460ff161515151581525050848681518110610df5577f4e487b7100000000000000000000000000000000000000000000000000000000600052603260045260246000fd5b6020026020010181905250600185610e0d9190613c6d565b945050505b8080610e1d90613e53565b915050610c2f565b508094505050505090565b610e41610e3b611ec9565b82611f98565b610e80576040517f08c379a0000000000000000000000000000000000000000000000000000000008152600401610e7790613b0f565b60405180910390fd5b610e8b838383612076565b505050565b610eab838383604051806020016040528060008152506114d8565b505050565b60606000610ebe6007611f8a565b905060008060005b83811015610f67573373ffffffffffffffffffffffffffffffffffffffff16600b6000600184610ef69190613c6d565b815260200190815260200160002060010160009054906101000a900473ffffffffffffffffffffffffffffffffffffffff1673ffffffffffffffffffffffffffffffffffffffff161415610f5457600183610f519190613c6d565b92505b8080610f5f90613e53565b915050610ec6565b5060008267ffffffffffffffff811115610faa577f4e487b7100000000000000000000000000000000000000000000000000000000600052604160045260246000fd5b604051908082528060200260200182016040528015610fe357816020015b610fd0612d98565b815260200190600190039081610fc85790505b50905060005b848110156111df573373ffffffffffffffffffffffffffffffffffffffff16600b60006001846110199190613c6d565b815260200190815260200160002060010160009054906101000a900473ffffffffffffffffffffffffffffffffffffffff1673ffffffffffffffffffffffffffffffffffffffff1614156111cc5760006001826110769190613c6d565b90506000600b60008381526020019081526020016000209050806040518060a0016040529081600082015481526020016001820160009054906101000a900473ffffffffffffffffffffffffffffffffffffffff1673ffffffffffffffffffffffffffffffffffffffff1673ffffffffffffffffffffffffffffffffffffffff1681526020016002820160009054906101000a900473ffffffffffffffffffffffffffffffffffffffff1673ffffffffffffffffffffffffffffffffffffffff1673ffffffffffffffffffffffffffffffffffffffff168152602001600382015481526020016004820160009054906101000a900460ff1615151515815250508486815181106111af577f4e487b7100000000000000000000000000000000000000000000000000000000600052603260045260246000fd5b60200260200101819052506001856111c79190613c6d565b945050505b80806111d790613e53565b915050610fe9565b508094505050505090565b6000806002600084815260200190815260200160002060009054906101000a900473ffffffffffffffffffffffffffffffffffffffff169050600073ffffffffffffffffffffffffffffffffffffffff168173ffffffffffffffffffffffffffffffffffffffff161415611293576040517f08c379a000000000000000000000000000000000000000000000000000000000815260040161128a906139cf565b60405180910390fd5b80915050919050565b60008073ffffffffffffffffffffffffffffffffffffffff168273ffffffffffffffffffffffffffffffffffffffff16141561130d576040517f08c379a0000000000000000000000000000000000000000000000000000000008152600401611304906139af565b60405180910390fd5b600360008373ffffffffffffffffffffffffffffffffffffffff1673ffffffffffffffffffffffffffffffffffffffff168152602001908152602001600020549050919050565b600061136060076122dd565b600061136c6007611f8a565b905061137833826122f3565b61138281856124cd565b61138c8184612541565b8091505092915050565b6060600180546113a590613df0565b80601f01602080910402602001604051908101604052809291908181526020018280546113d190613df0565b801561141e5780601f106113f35761010080835404028352916020019161141e565b820191906000526020600020905b81548152906001019060200180831161140157829003601f168201915b5050505050905090565b61143a611433611ec9565b8383612744565b5050565b3373ffffffffffffffffffffffffffffffffffffffff16600a60009054906101000a900473ffffffffffffffffffffffffffffffffffffffff1673ffffffffffffffffffffffffffffffffffffffff16146114ce576040517f08c379a00000000000000000000000000000000000000000000000000000000081526004016114c590613b2f565b60405180910390fd5b8060098190555050565b6114e96114e3611ec9565b83611f98565b611528576040517f08c379a000000000000000000000000000000000000000000000000000000000815260040161151f90613b0f565b60405180910390fd5b611534848484846128b1565b50505050565b6000600b60008381526020019081526020016000206003015490506000600b600084815260200190815260200160002060010160009054906101000a900473ffffffffffffffffffffffffffffffffffffffff1690508134146115d2576040517f08c379a00000000000000000000000000000000000000000000000000000000081526004016115c990613a0f565b60405180910390fd5b33600b600085815260200190815260200160002060020160006101000a81548173ffffffffffffffffffffffffffffffffffffffff021916908373ffffffffffffffffffffffffffffffffffffffff1602179055506001600b600085815260200190815260200160002060040160006101000a81548160ff0219169083151502179055506000600b600085815260200190815260200160002060010160006101000a81548173ffffffffffffffffffffffffffffffffffffffff021916908373ffffffffffffffffffffffffffffffffffffffff1602179055506116b660086122dd565b6116c1303385612076565b600a60009054906101000a900473ffffffffffffffffffffffffffffffffffffffff1673ffffffffffffffffffffffffffffffffffffffff166108fc6009549081150290604051600060405180830381858888f1935050505015801561172b573d6000803e3d6000fd5b508073ffffffffffffffffffffffffffffffffffffffff166108fc349081150290604051600060405180830381858888f19350505050158015611772573d6000803e3d6000fd5b50505050565b606061178382611e5d565b6117c2576040517f08c379a00000000000000000000000000000000000000000000000000000000081526004016117b990613a4f565b60405180910390fd5b60006006600084815260200190815260200160002080546117e290613df0565b80601f016020809104026020016040519081016040528092919081815260200182805461180e90613df0565b801561185b5780601f106118305761010080835404028352916020019161185b565b820191906000526020600020905b81548152906001019060200180831161183e57829003601f168201915b50505050509050600061186c61290d565b90506000815114156118825781925050506118c5565b6000825111156118b757808260405160200161189f929190613760565b604051602081830303815290604052925050506118c5565b6118c084612924565b925050505b919050565b606060006118d86007611f8a565b905060006118e66008611f8a565b90506000808267ffffffffffffffff81111561192b577f4e487b7100000000000000000000000000000000000000000000000000000000600052604160045260246000fd5b60405190808252806020026020018201604052801561196457816020015b611951612d98565b8152602001906001900390816119495790505b50905060005b84811015611b5f573073ffffffffffffffffffffffffffffffffffffffff16600b600060018461199a9190613c6d565b815260200190815260200160002060020160009054906101000a900473ffffffffffffffffffffffffffffffffffffffff1673ffffffffffffffffffffffffffffffffffffffff1614611b4c5760006001826119f69190613c6d565b90506000600b60008381526020019081526020016000209050806040518060a0016040529081600082015481526020016001820160009054906101000a900473ffffffffffffffffffffffffffffffffffffffff1673ffffffffffffffffffffffffffffffffffffffff1673ffffffffffffffffffffffffffffffffffffffff1681526020016002820160009054906101000a900473ffffffffffffffffffffffffffffffffffffffff1673ffffffffffffffffffffffffffffffffffffffff1673ffffffffffffffffffffffffffffffffffffffff168152602001600382015481526020016004820160009054906101000a900460ff161515151581525050848681518110611b2f577f4e487b7100000000000000000000000000000000000000000000000000000000600052603260045260246000fd5b6020026020010181905250600185611b479190613c6d565b945050505b8080611b5790613e53565b91505061196a565b508094505050505090565b3373ffffffffffffffffffffffffffffffffffffffff16600b600084815260200190815260200160002060020160009054906101000a900473ffffffffffffffffffffffffffffffffffffffff1673ffffffffffffffffffffffffffffffffffffffff1614611c0e576040517f08c379a0000000000000000000000000000000000000000000000000000000008152600401611c0590613a6f565b60405180910390fd5b6009543414611c52576040517f08c379a0000000000000000000000000000000000000000000000000000000008152600401611c4990613aef565b60405180910390fd5b6000600b600084815260200190815260200160002060040160006101000a81548160ff02191690831515021790555080600b60008481526020019081526020016000206003018190555033600b600084815260200190815260200160002060010160006101000a81548173ffffffffffffffffffffffffffffffffffffffff021916908373ffffffffffffffffffffffffffffffffffffffff16021790555030600b600084815260200190815260200160002060020160006101000a81548173ffffffffffffffffffffffffffffffffffffffff021916908373ffffffffffffffffffffffffffffffffffffffff160217905550611d5060086129cb565b611d5b333084612076565b5050565b6000600560008473ffffffffffffffffffffffffffffffffffffffff1673ffffffffffffffffffffffffffffffffffffffff16815260200190815260200160002060008373ffffffffffffffffffffffffffffffffffffffff1673ffffffffffffffffffffffffffffffffffffffff16815260200190815260200160002060009054906101000a900460ff16905092915050565b60007f01ffc9a7000000000000000000000000000000000000000000000000000000007bffffffffffffffffffffffffffffffffffffffffffffffffffffffff1916827bffffffffffffffffffffffffffffffffffffffffffffffffffffffff1916149050919050565b60008073ffffffffffffffffffffffffffffffffffffffff166002600084815260200190815260200160002060009054906101000a900473ffffffffffffffffffffffffffffffffffffffff1673ffffffffffffffffffffffffffffffffffffffff1614159050919050565b600033905090565b816004600083815260200190815260200160002060006101000a81548173ffffffffffffffffffffffffffffffffffffffff021916908373ffffffffffffffffffffffffffffffffffffffff160217905550808273ffffffffffffffffffffffffffffffffffffffff16611f44836111ea565b73ffffffffffffffffffffffffffffffffffffffff167f8c5be1e5ebec7d5bd14f71427d1e84f3dd0314c0f7b2291e5b200ac8c7c3b92560405160405180910390a45050565b600081600001549050919050565b6000611fa382611e5d565b611fe2576040517f08c379a0000000000000000000000000000000000000000000000000000000008152600401611fd99061396f565b60405180910390fd5b6000611fed836111ea565b90508073ffffffffffffffffffffffffffffffffffffffff168473ffffffffffffffffffffffffffffffffffffffff16148061205c57508373ffffffffffffffffffffffffffffffffffffffff166120448461069a565b73ffffffffffffffffffffffffffffffffffffffff16145b8061206d575061206c8185611d5f565b5b91505092915050565b8273ffffffffffffffffffffffffffffffffffffffff16612096826111ea565b73ffffffffffffffffffffffffffffffffffffffff16146120ec576040517f08c379a00000000000000000000000000000000000000000000000000000000081526004016120e3906138ef565b60405180910390fd5b600073ffffffffffffffffffffffffffffffffffffffff168273ffffffffffffffffffffffffffffffffffffffff16141561215c576040517f08c379a00000000000000000000000000000000000000000000000000000000081526004016121539061392f565b60405180910390fd5b612167838383612a27565b612172600082611ed1565b6001600360008573ffffffffffffffffffffffffffffffffffffffff1673ffffffffffffffffffffffffffffffffffffffff16815260200190815260200160002060008282546121c29190613cf4565b925050819055506001600360008473ffffffffffffffffffffffffffffffffffffffff1673ffffffffffffffffffffffffffffffffffffffff16815260200190815260200160002060008282546122199190613c6d565b92505081905550816002600083815260200190815260200160002060006101000a81548173ffffffffffffffffffffffffffffffffffffffff021916908373ffffffffffffffffffffffffffffffffffffffff160217905550808273ffffffffffffffffffffffffffffffffffffffff168473ffffffffffffffffffffffffffffffffffffffff167fddf252ad1be2c89b69c2b068fc378daa952ba7f163c4a11628f55a4df523b3ef60405160405180910390a46122d8838383612a2c565b505050565b6001816000016000828254019250508190555050565b600073ffffffffffffffffffffffffffffffffffffffff168273ffffffffffffffffffffffffffffffffffffffff161415612363576040517f08c379a000000000000000000000000000000000000000000000000000000000815260040161235a90613a2f565b60405180910390fd5b61236c81611e5d565b156123ac576040517f08c379a00000000000000000000000000000000000000000000000000000000081526004016123a39061390f565b60405180910390fd5b6123b860008383612a27565b6001600360008473ffffffffffffffffffffffffffffffffffffffff1673ffffffffffffffffffffffffffffffffffffffff16815260200190815260200160002060008282546124089190613c6d565b92505081905550816002600083815260200190815260200160002060006101000a81548173ffffffffffffffffffffffffffffffffffffffff021916908373ffffffffffffffffffffffffffffffffffffffff160217905550808273ffffffffffffffffffffffffffffffffffffffff16600073ffffffffffffffffffffffffffffffffffffffff167fddf252ad1be2c89b69c2b068fc378daa952ba7f163c4a11628f55a4df523b3ef60405160405180910390a46124c960008383612a2c565b5050565b6124d682611e5d565b612515576040517f08c379a000000000000000000000000000000000000000000000000000000000815260040161250c906139ef565b60405180910390fd5b8060066000848152602001908152602001600020908051906020019061253c929190612df5565b505050565b60008111612584576040517f08c379a000000000000000000000000000000000000000000000000000000000815260040161257b906138cf565b60405180910390fd5b60095434146125c8576040517f08c379a00000000000000000000000000000000000000000000000000000000081526004016125bf90613aef565b60405180910390fd5b6040518060a001604052808381526020013373ffffffffffffffffffffffffffffffffffffffff1681526020013073ffffffffffffffffffffffffffffffffffffffff16815260200182815260200160001515815250600b60008481526020019081526020016000206000820151816000015560208201518160010160006101000a81548173ffffffffffffffffffffffffffffffffffffffff021916908373ffffffffffffffffffffffffffffffffffffffff16021790555060408201518160020160006101000a81548173ffffffffffffffffffffffffffffffffffffffff021916908373ffffffffffffffffffffffffffffffffffffffff1602179055506060820151816003015560808201518160040160006101000a81548160ff021916908315150217905550905050612701333084612076565b817fb640004f1d14576d0c209e240cad0410e0d8c0c33a09375861fbadae2588a98d3330846000604051612738949392919061379f565b60405180910390a25050565b8173ffffffffffffffffffffffffffffffffffffffff168373ffffffffffffffffffffffffffffffffffffffff1614156127b3576040517f08c379a00000000000000000000000000000000000000000000000000000000081526004016127aa9061394f565b60405180910390fd5b80600560008573ffffffffffffffffffffffffffffffffffffffff1673ffffffffffffffffffffffffffffffffffffffff16815260200190815260200160002060008473ffffffffffffffffffffffffffffffffffffffff1673ffffffffffffffffffffffffffffffffffffffff16815260200190815260200160002060006101000a81548160ff0219169083151502179055508173ffffffffffffffffffffffffffffffffffffffff168373ffffffffffffffffffffffffffffffffffffffff167f17307eab39ab6107e8899845ad3d59bd9653f200f220920489ca2b5937696c31836040516128a49190613852565b60405180910390a3505050565b6128bc848484612076565b6128c884848484612a31565b612907576040517f08c379a00000000000000000000000000000000000000000000000000000000081526004016128fe906138af565b60405180910390fd5b50505050565b606060405180602001604052806000815250905090565b606061292f82611e5d565b61296e576040517f08c379a000000000000000000000000000000000000000000000000000000000815260040161296590613aaf565b60405180910390fd5b600061297861290d565b9050600081511161299857604051806020016040528060008152506129c3565b806129a284612bc8565b6040516020016129b3929190613760565b6040516020818303038152906040525b915050919050565b60008160000154905060008111612a17576040517f08c379a0000000000000000000000000000000000000000000000000000000008152600401612a0e9061388f565b60405180910390fd5b6001810382600001819055505050565b505050565b505050565b6000612a528473ffffffffffffffffffffffffffffffffffffffff16612d75565b15612bbb578373ffffffffffffffffffffffffffffffffffffffff1663150b7a02612a7b611ec9565b8786866040518563ffffffff1660e01b8152600401612a9d94939291906137e4565b602060405180830381600087803b158015612ab757600080fd5b505af1925050508015612ae857506040513d601f19601f82011682018060405250810190612ae591906131a1565b60015b612b6b573d8060008114612b18576040519150601f19603f3d011682016040523d82523d6000602084013e612b1d565b606091505b50600081511415612b63576040517f08c379a0000000000000000000000000000000000000000000000000000000008152600401612b5a906138af565b60405180910390fd5b805181602001fd5b63150b7a0260e01b7bffffffffffffffffffffffffffffffffffffffffffffffffffffffff1916817bffffffffffffffffffffffffffffffffffffffffffffffffffffffff191614915050612bc0565b600190505b949350505050565b60606000821415612c10576040518060400160405280600181526020017f30000000000000000000000000000000000000000000000000000000000000008152509050612d70565b600082905060005b60008214612c42578080612c2b90613e53565b915050600a82612c3b9190613cc3565b9150612c18565b60008167ffffffffffffffff811115612c84577f4e487b7100000000000000000000000000000000000000000000000000000000600052604160045260246000fd5b6040519080825280601f01601f191660200182016040528015612cb65781602001600182028036833780820191505090505b5090505b60008514612d6957600182612ccf9190613cf4565b9150600a85612cde9190613e9c565b6030612cea9190613c6d565b60f81b818381518110612d26577f4e487b7100000000000000000000000000000000000000000000000000000000600052603260045260246000fd5b60200101907effffffffffffffffffffffffffffffffffffffffffffffffffffffffffffff1916908160001a905350600a85612d629190613cc3565b9450612cba565b8093505050505b919050565b6000808273ffffffffffffffffffffffffffffffffffffffff163b119050919050565b6040518060a0016040528060008152602001600073ffffffffffffffffffffffffffffffffffffffff168152602001600073ffffffffffffffffffffffffffffffffffffffff168152602001600081526020016000151581525090565b828054612e0190613df0565b90600052602060002090601f016020900481019282612e235760008555612e6a565b82601f10612e3c57805160ff1916838001178555612e6a565b82800160010185558215612e6a579182015b82811115612e69578251825591602001919060010190612e4e565b5b509050612e779190612e7b565b5090565b5b80821115612e94576000816000905550600101612e7c565b5090565b6000612eab612ea684613b8f565b613b6a565b905082815260208101848484011115612ec357600080fd5b612ece848285613dae565b509392505050565b6000612ee9612ee484613bc0565b613b6a565b905082815260208101848484011115612f0157600080fd5b612f0c848285613dae565b509392505050565b600081359050612f23816145a6565b92915050565b600081359050612f38816145bd565b92915050565b600081359050612f4d816145d4565b92915050565b600081519050612f62816145d4565b92915050565b600082601f830112612f7957600080fd5b8135612f89848260208601612e98565b91505092915050565b600082601f830112612fa357600080fd5b8135612fb3848260208601612ed6565b91505092915050565b600081359050612fcb816145eb565b92915050565b600060208284031215612fe357600080fd5b6000612ff184828501612f14565b91505092915050565b6000806040838503121561300d57600080fd5b600061301b85828601612f14565b925050602061302c85828601612f14565b9150509250929050565b60008060006060848603121561304b57600080fd5b600061305986828701612f14565b935050602061306a86828701612f14565b925050604061307b86828701612fbc565b9150509250925092565b6000806000806080858703121561309b57600080fd5b60006130a987828801612f14565b94505060206130ba87828801612f14565b93505060406130cb87828801612fbc565b925050606085013567ffffffffffffffff8111156130e857600080fd5b6130f487828801612f68565b91505092959194509250565b6000806040838503121561311357600080fd5b600061312185828601612f14565b925050602061313285828601612f29565b9150509250929050565b6000806040838503121561314f57600080fd5b600061315d85828601612f14565b925050602061316e85828601612fbc565b9150509250929050565b60006020828403121561318a57600080fd5b600061319884828501612f3e565b91505092915050565b6000602082840312156131b357600080fd5b60006131c184828501612f53565b91505092915050565b600080604083850312156131dd57600080fd5b600083013567ffffffffffffffff8111156131f757600080fd5b61320385828601612f92565b925050602061321485828601612fbc565b9150509250929050565b60006020828403121561323057600080fd5b600061323e84828501612fbc565b91505092915050565b6000806040838503121561325a57600080fd5b600061326885828601612fbc565b925050602061327985828601612fbc565b9150509250929050565b600061328f83836136da565b60a08301905092915050565b6132a481613d3a565b82525050565b6132b381613d28565b82525050565b60006132c482613c01565b6132ce8185613c2f565b93506132d983613bf1565b8060005b8381101561330a5781516132f18882613283565b97506132fc83613c22565b9250506001810190506132dd565b5085935050505092915050565b61332081613d4c565b82525050565b61332f81613d4c565b82525050565b600061334082613c0c565b61334a8185613c40565b935061335a818560208601613dbd565b61336381613f89565b840191505092915050565b600061337982613c17565b6133838185613c51565b9350613393818560208601613dbd565b61339c81613f89565b840191505092915050565b60006133b282613c17565b6133bc8185613c62565b93506133cc818560208601613dbd565b80840191505092915050565b60006133e5601b83613c51565b91506133f082613f9a565b602082019050919050565b6000613408603283613c51565b915061341382613fc3565b604082019050919050565b600061342b601c83613c51565b915061343682614012565b602082019050919050565b600061344e602583613c51565b91506134598261403b565b604082019050919050565b6000613471601c83613c51565b915061347c8261408a565b602082019050919050565b6000613494602483613c51565b915061349f826140b3565b604082019050919050565b60006134b7601983613c51565b91506134c282614102565b602082019050919050565b60006134da602c83613c51565b91506134e58261412b565b604082019050919050565b60006134fd603883613c51565b91506135088261417a565b604082019050919050565b6000613520602a83613c51565b915061352b826141c9565b604082019050919050565b6000613543602983613c51565b915061354e82614218565b604082019050919050565b6000613566602e83613c51565b915061357182614267565b604082019050919050565b6000613589604083613c51565b9150613594826142b6565b604082019050919050565b60006135ac602083613c51565b91506135b782614305565b602082019050919050565b60006135cf603183613c51565b91506135da8261432e565b604082019050919050565b60006135f2602a83613c51565b91506135fd8261437d565b604082019050919050565b6000613615602c83613c51565b9150613620826143cc565b604082019050919050565b6000613638602f83613c51565b91506136438261441b565b604082019050919050565b600061365b602183613c51565b91506136668261446a565b604082019050919050565b600061367e602483613c51565b9150613689826144b9565b604082019050919050565b60006136a1603183613c51565b91506136ac82614508565b604082019050919050565b60006136c4603083613c51565b91506136cf82614557565b604082019050919050565b60a0820160008201516136f06000850182613742565b506020820151613703602085018261329b565b506040820151613716604085018261329b565b5060608201516137296060850182613742565b50608082015161373c6080850182613317565b50505050565b61374b81613da4565b82525050565b61375a81613da4565b82525050565b600061376c82856133a7565b915061377882846133a7565b91508190509392505050565b600060208201905061379960008301846132aa565b92915050565b60006080820190506137b460008301876132aa565b6137c160208301866132aa565b6137ce6040830185613751565b6137db6060830184613326565b95945050505050565b60006080820190506137f960008301876132aa565b61380660208301866132aa565b6138136040830185613751565b81810360608301526138258184613335565b905095945050505050565b6000602082019050818103600083015261384a81846132b9565b905092915050565b60006020820190506138676000830184613326565b92915050565b60006020820190508181036000830152613887818461336e565b905092915050565b600060208201905081810360008301526138a8816133d8565b9050919050565b600060208201905081810360008301526138c8816133fb565b9050919050565b600060208201905081810360008301526138e88161341e565b9050919050565b6000602082019050818103600083015261390881613441565b9050919050565b6000602082019050818103600083015261392881613464565b9050919050565b6000602082019050818103600083015261394881613487565b9050919050565b60006020820190508181036000830152613968816134aa565b9050919050565b60006020820190508181036000830152613988816134cd565b9050919050565b600060208201905081810360008301526139a8816134f0565b9050919050565b600060208201905081810360008301526139c881613513565b9050919050565b600060208201905081810360008301526139e881613536565b9050919050565b60006020820190508181036000830152613a0881613559565b9050919050565b60006020820190508181036000830152613a288161357c565b9050919050565b60006020820190508181036000830152613a488161359f565b9050919050565b60006020820190508181036000830152613a68816135c2565b9050919050565b60006020820190508181036000830152613a88816135e5565b9050919050565b60006020820190508181036000830152613aa881613608565b9050919050565b60006020820190508181036000830152613ac88161362b565b9050919050565b60006020820190508181036000830152613ae88161364e565b9050919050565b60006020820190508181036000830152613b0881613671565b9050919050565b60006020820190508181036000830152613b2881613694565b9050919050565b60006020820190508181036000830152613b48816136b7565b9050919050565b6000602082019050613b646000830184613751565b92915050565b6000613b74613b85565b9050613b808282613e22565b919050565b6000604051905090565b600067ffffffffffffffff821115613baa57613ba9613f5a565b5b613bb382613f89565b9050602081019050919050565b600067ffffffffffffffff821115613bdb57613bda613f5a565b5b613be482613f89565b9050602081019050919050565b6000819050602082019050919050565b600081519050919050565b600081519050919050565b600081519050919050565b6000602082019050919050565b600082825260208201905092915050565b600082825260208201905092915050565b600082825260208201905092915050565b600081905092915050565b6000613c7882613da4565b9150613c8383613da4565b9250827fffffffffffffffffffffffffffffffffffffffffffffffffffffffffffffffff03821115613cb857613cb7613ecd565b5b828201905092915050565b6000613cce82613da4565b9150613cd983613da4565b925082613ce957613ce8613efc565b5b828204905092915050565b6000613cff82613da4565b9150613d0a83613da4565b925082821015613d1d57613d1c613ecd565b5b828203905092915050565b6000613d3382613d84565b9050919050565b6000613d4582613d84565b9050919050565b60008115159050919050565b60007fffffffff0000000000000000000000000000000000000000000000000000000082169050919050565b600073ffffffffffffffffffffffffffffffffffffffff82169050919050565b6000819050919050565b82818337600083830152505050565b60005b83811015613ddb578082015181840152602081019050613dc0565b83811115613dea576000848401525b50505050565b60006002820490506001821680613e0857607f821691505b60208210811415613e1c57613e1b613f2b565b5b50919050565b613e2b82613f89565b810181811067ffffffffffffffff82111715613e4a57613e49613f5a565b5b80604052505050565b6000613e5e82613da4565b91507fffffffffffffffffffffffffffffffffffffffffffffffffffffffffffffffff821415613e9157613e90613ecd565b5b600182019050919050565b6000613ea782613da4565b9150613eb283613da4565b925082613ec257613ec1613efc565b5b828206905092915050565b7f4e487b7100000000000000000000000000000000000000000000000000000000600052601160045260246000fd5b7f4e487b7100000000000000000000000000000000000000000000000000000000600052601260045260246000fd5b7f4e487b7100000000000000000000000000000000000000000000000000000000600052602260045260246000fd5b7f4e487b7100000000000000000000000000000000000000000000000000000000600052604160045260246000fd5b6000601f19601f8301169050919050565b7f436f756e7465723a2064656372656d656e74206f766572666c6f770000000000600082015250565b7f4552433732313a207472616e7366657220746f206e6f6e20455243373231526560008201527f63656976657220696d706c656d656e7465720000000000000000000000000000602082015250565b7f5072696365206d757374206265206174206c6561737420312045544800000000600082015250565b7f4552433732313a207472616e736665722066726f6d20696e636f72726563742060008201527f6f776e6572000000000000000000000000000000000000000000000000000000602082015250565b7f4552433732313a20746f6b656e20616c7265616479206d696e74656400000000600082015250565b7f4552433732313a207472616e7366657220746f20746865207a65726f2061646460008201527f7265737300000000000000000000000000000000000000000000000000000000602082015250565b7f4552433732313a20617070726f766520746f2063616c6c657200000000000000600082015250565b7f4552433732313a206f70657261746f7220717565727920666f72206e6f6e657860008201527f697374656e7420746f6b656e0000000000000000000000000000000000000000602082015250565b7f4552433732313a20617070726f76652063616c6c6572206973206e6f74206f7760008201527f6e6572206e6f7220617070726f76656420666f7220616c6c0000000000000000602082015250565b7f4552433732313a2062616c616e636520717565727920666f7220746865207a6560008201527f726f206164647265737300000000000000000000000000000000000000000000602082015250565b7f4552433732313a206f776e657220717565727920666f72206e6f6e657869737460008201527f656e7420746f6b656e0000000000000000000000000000000000000000000000602082015250565b7f45524337323155524953746f726167653a2055524920736574206f66206e6f6e60008201527f6578697374656e7420746f6b656e000000000000000000000000000000000000602082015250565b7f506c65617365207375626d6974207468652061736b696e67207072696365206960008201527f6e206f7264657220746f20636f6d706c65746520746865207075726368617365602082015250565b7f4552433732313a206d696e7420746f20746865207a65726f2061646472657373600082015250565b7f45524337323155524953746f726167653a2055524920717565727920666f722060008201527f6e6f6e6578697374656e7420746f6b656e000000000000000000000000000000602082015250565b7f4f6e6c79206974656d206f776e65722063616e20706572666f726d207468697360008201527f206f7065726174696f6e00000000000000000000000000000000000000000000602082015250565b7f4552433732313a20617070726f76656420717565727920666f72206e6f6e657860008201527f697374656e7420746f6b656e0000000000000000000000000000000000000000602082015250565b7f4552433732314d657461646174613a2055524920717565727920666f72206e6f60008201527f6e6578697374656e7420746f6b656e0000000000000000000000000000000000602082015250565b7f4552433732313a20617070726f76616c20746f2063757272656e74206f776e6560008201527f7200000000000000000000000000000000000000000000000000000000000000602082015250565b7f5072696365206d75737420626520657175616c20746f206c697374696e67207060008201527f7269636500000000000000000000000000000000000000000000000000000000602082015250565b7f4552433732313a207472616e736665722063616c6c6572206973206e6f74206f60008201527f776e6572206e6f7220617070726f766564000000000000000000000000000000602082015250565b7f4f6e6c79206d61726b6574706c616365206f776e65722063616e20757064617460008201527f65206c697374696e672070726963652e00000000000000000000000000000000602082015250565b6145af81613d28565b81146145ba57600080fd5b50565b6145c681613d4c565b81146145d157600080fd5b50565b6145dd81613d58565b81146145e857600080fd5b50565b6145f481613da4565b81146145ff57600080fd5b5056fea264697066735822122072d8bdf55afbed0bacdd10af69eab18a2983c0d6d9e68cdca7a73f10e349bb0664736f6c63430008040033",
  "linkReferences": {},
  "deployedLinkReferences": {}
}