{
  "_format": "hh-sol-artifact-1",
  "contractName": "NFTMarketplace",
  "sourceName": "contracts/NFTMartketplace.sol",
  "abi": [
    {
      "inputs": [],
      "stateMutability": "nonpayable",
      "type": "constructor"
    },
    {
      "anonymous": false,
      "inputs": [
        {
          "indexed": true,
          "internalType": "address",
          "name": "owner",
          "type": "address"
        },
        {
          "indexed": true,
          "internalType": "address",
          "name": "approved",
          "type": "address"
        },
        {
          "indexed": true,
          "internalType": "uint256",
          "name": "tokenId",
          "type": "uint256"
        }
      ],
      "name": "Approval",
      "type": "event"
    },
    {
      "anonymous": false,
      "inputs": [
        {
          "indexed": true,
          "internalType": "address",
          "name": "owner",
          "type": "address"
        },
        {
          "indexed": true,
          "internalType": "address",
          "name": "operator",
          "type": "address"
        },
        {
          "indexed": false,
          "internalType": "bool",
          "name": "approved",
          "type": "bool"
        }
      ],
      "name": "ApprovalForAll",
      "type": "event"
    },
    {
      "anonymous": false,
      "inputs": [
        {
          "indexed": true,
          "internalType": "uint256",
          "name": "tokenId",
          "type": "uint256"
        },
        {
          "indexed": false,
          "internalType": "address",
          "name": "seller",
          "type": "address"
        },
        {
          "indexed": false,
          "internalType": "address",
          "name": "owner",
          "type": "address"
        },
        {
          "indexed": false,
          "internalType": "uint256",
          "name": "price",
          "type": "uint256"
        },
        {
          "indexed": false,
          "internalType": "bool",
          "name": "sold",
          "type": "bool"
        }
      ],
      "name": "MarketItemCreated",
      "type": "event"
    },
    {
      "anonymous": false,
      "inputs": [
        {
          "indexed": true,
          "internalType": "address",
          "name": "from",
          "type": "address"
        },
        {
          "indexed": true,
          "internalType": "address",
          "name": "to",
          "type": "address"
        },
        {
          "indexed": true,
          "internalType": "uint256",
          "name": "tokenId",
          "type": "uint256"
        }
      ],
      "name": "Transfer",
      "type": "event"
    },
    {
      "inputs": [
        {
          "internalType": "address",
          "name": "to",
          "type": "address"
        },
        {
          "internalType": "uint256",
          "name": "tokenId",
          "type": "uint256"
        }
      ],
      "name": "approve",
      "outputs": [],
      "stateMutability": "nonpayable",
      "type": "function"
    },
    {
      "inputs": [
        {
          "internalType": "address",
          "name": "owner",
          "type": "address"
        }
      ],
      "name": "balanceOf",
      "outputs": [
        {
          "internalType": "uint256",
          "name": "",
          "type": "uint256"
        }
      ],
      "stateMutability": "view",
      "type": "function"
    },
    {
      "inputs": [
        {
          "internalType": "uint256",
          "name": "tokenId",
          "type": "uint256"
        }
      ],
      "name": "createMarketSale",
      "outputs": [],
      "stateMutability": "payable",
      "type": "function"
    },
    {
      "inputs": [
        {
          "internalType": "string",
          "name": "tokenURI",
          "type": "string"
        },
        {
          "internalType": "uint256",
          "name": "price",
          "type": "uint256"
        }
      ],
      "name": "createToken",
      "outputs": [
        {
          "internalType": "uint256",
          "name": "",
          "type": "uint256"
        }
      ],
      "stateMutability": "payable",
      "type": "function"
    },
    {
      "inputs": [],
      "name": "fetchAllMarketItems",
      "outputs": [
        {
          "components": [
            {
              "internalType": "uint256",
              "name": "tokenId",
              "type": "uint256"
            },
            {
              "internalType": "address payable",
              "name": "seller",
              "type": "address"
            },
            {
              "internalType": "address payable",
              "name": "owner",
              "type": "address"
            },
            {
              "internalType": "uint256",
              "name": "price",
              "type": "uint256"
            },
            {
              "internalType": "bool",
              "name": "sold",
              "type": "bool"
            },
            {
              "internalType": "address",
              "name": "buyer",
              "type": "address"
            },
            {
              "internalType": "bool",
              "name": "isAvailableForPurchase",
              "type": "bool"
            }
          ],
          "internalType": "struct NFTMarketplace.MarketItem[]",
          "name": "",
          "type": "tuple[]"
        }
      ],
      "stateMutability": "view",
      "type": "function"
    },
    {
      "inputs": [],
      "name": "fetchItemsListed",
      "outputs": [
        {
          "components": [
            {
              "internalType": "uint256",
              "name": "tokenId",
              "type": "uint256"
            },
            {
              "internalType": "address payable",
              "name": "seller",
              "type": "address"
            },
            {
              "internalType": "address payable",
              "name": "owner",
              "type": "address"
            },
            {
              "internalType": "uint256",
              "name": "price",
              "type": "uint256"
            },
            {
              "internalType": "bool",
              "name": "sold",
              "type": "bool"
            },
            {
              "internalType": "address",
              "name": "buyer",
              "type": "address"
            },
            {
              "internalType": "bool",
              "name": "isAvailableForPurchase",
              "type": "bool"
            }
          ],
          "internalType": "struct NFTMarketplace.MarketItem[]",
          "name": "",
          "type": "tuple[]"
        }
      ],
      "stateMutability": "view",
      "type": "function"
    },
    {
      "inputs": [],
      "name": "fetchMarketItems",
      "outputs": [
        {
          "components": [
            {
              "internalType": "uint256",
              "name": "tokenId",
              "type": "uint256"
            },
            {
              "internalType": "address payable",
              "name": "seller",
              "type": "address"
            },
            {
              "internalType": "address payable",
              "name": "owner",
              "type": "address"
            },
            {
              "internalType": "uint256",
              "name": "price",
              "type": "uint256"
            },
            {
              "internalType": "bool",
              "name": "sold",
              "type": "bool"
            },
            {
              "internalType": "address",
              "name": "buyer",
              "type": "address"
            },
            {
              "internalType": "bool",
              "name": "isAvailableForPurchase",
              "type": "bool"
            }
          ],
          "internalType": "struct NFTMarketplace.MarketItem[]",
          "name": "",
          "type": "tuple[]"
        }
      ],
      "stateMutability": "view",
      "type": "function"
    },
    {
      "inputs": [],
      "name": "fetchMyNFTs",
      "outputs": [
        {
          "components": [
            {
              "internalType": "uint256",
              "name": "tokenId",
              "type": "uint256"
            },
            {
              "internalType": "address payable",
              "name": "seller",
              "type": "address"
            },
            {
              "internalType": "address payable",
              "name": "owner",
              "type": "address"
            },
            {
              "internalType": "uint256",
              "name": "price",
              "type": "uint256"
            },
            {
              "internalType": "bool",
              "name": "sold",
              "type": "bool"
            },
            {
              "internalType": "address",
              "name": "buyer",
              "type": "address"
            },
            {
              "internalType": "bool",
              "name": "isAvailableForPurchase",
              "type": "bool"
            }
          ],
          "internalType": "struct NFTMarketplace.MarketItem[]",
          "name": "",
          "type": "tuple[]"
        }
      ],
      "stateMutability": "view",
      "type": "function"
    },
    {
      "inputs": [],
      "name": "fetchSoldItems",
      "outputs": [
        {
          "components": [
            {
              "internalType": "uint256",
              "name": "tokenId",
              "type": "uint256"
            },
            {
              "internalType": "address payable",
              "name": "seller",
              "type": "address"
            },
            {
              "internalType": "address payable",
              "name": "owner",
              "type": "address"
            },
            {
              "internalType": "uint256",
              "name": "price",
              "type": "uint256"
            },
            {
              "internalType": "bool",
              "name": "sold",
              "type": "bool"
            },
            {
              "internalType": "address",
              "name": "buyer",
              "type": "address"
            },
            {
              "internalType": "bool",
              "name": "isAvailableForPurchase",
              "type": "bool"
            }
          ],
          "internalType": "struct NFTMarketplace.MarketItem[]",
          "name": "",
          "type": "tuple[]"
        }
      ],
      "stateMutability": "view",
      "type": "function"
    },
    {
      "inputs": [
        {
          "internalType": "uint256",
          "name": "tokenId",
          "type": "uint256"
        }
      ],
      "name": "getApproved",
      "outputs": [
        {
          "internalType": "address",
          "name": "",
          "type": "address"
        }
      ],
      "stateMutability": "view",
      "type": "function"
    },
    {
      "inputs": [],
      "name": "getListingPrice",
      "outputs": [
        {
          "internalType": "uint256",
          "name": "",
          "type": "uint256"
        }
      ],
      "stateMutability": "view",
      "type": "function"
    },
    {
      "inputs": [
        {
          "internalType": "uint256",
          "name": "tokenId",
          "type": "uint256"
        }
      ],
      "name": "getTokenHistory",
      "outputs": [
        {
          "internalType": "address[]",
          "name": "",
          "type": "address[]"
        },
        {
          "internalType": "uint256[]",
          "name": "",
          "type": "uint256[]"
        }
      ],
      "stateMutability": "view",
      "type": "function"
    },
    {
      "inputs": [
        {
          "internalType": "address",
          "name": "owner",
          "type": "address"
        },
        {
          "internalType": "address",
          "name": "operator",
          "type": "address"
        }
      ],
      "name": "isApprovedForAll",
      "outputs": [
        {
          "internalType": "bool",
          "name": "",
          "type": "bool"
        }
      ],
      "stateMutability": "view",
      "type": "function"
    },
    {
      "inputs": [],
      "name": "name",
      "outputs": [
        {
          "internalType": "string",
          "name": "",
          "type": "string"
        }
      ],
      "stateMutability": "view",
      "type": "function"
    },
    {
      "inputs": [
        {
          "internalType": "uint256",
          "name": "tokenId",
          "type": "uint256"
        }
      ],
      "name": "ownerOf",
      "outputs": [
        {
          "internalType": "address",
          "name": "",
          "type": "address"
        }
      ],
      "stateMutability": "view",
      "type": "function"
    },
    {
      "inputs": [
        {
          "internalType": "uint256",
          "name": "tokenId",
          "type": "uint256"
        },
        {
          "internalType": "uint256",
          "name": "price",
          "type": "uint256"
        }
      ],
      "name": "resellToken",
      "outputs": [],
      "stateMutability": "payable",
      "type": "function"
    },
    {
      "inputs": [
        {
          "internalType": "address",
          "name": "from",
          "type": "address"
        },
        {
          "internalType": "address",
          "name": "to",
          "type": "address"
        },
        {
          "internalType": "uint256",
          "name": "tokenId",
          "type": "uint256"
        }
      ],
      "name": "safeTransferFrom",
      "outputs": [],
      "stateMutability": "nonpayable",
      "type": "function"
    },
    {
      "inputs": [
        {
          "internalType": "address",
          "name": "from",
          "type": "address"
        },
        {
          "internalType": "address",
          "name": "to",
          "type": "address"
        },
        {
          "internalType": "uint256",
          "name": "tokenId",
          "type": "uint256"
        },
        {
          "internalType": "bytes",
          "name": "_data",
          "type": "bytes"
        }
      ],
      "name": "safeTransferFrom",
      "outputs": [],
      "stateMutability": "nonpayable",
      "type": "function"
    },
    {
      "inputs": [
        {
          "internalType": "address",
          "name": "operator",
          "type": "address"
        },
        {
          "internalType": "bool",
          "name": "approved",
          "type": "bool"
        }
      ],
      "name": "setApprovalForAll",
      "outputs": [],
      "stateMutability": "nonpayable",
      "type": "function"
    },
    {
      "inputs": [
        {
          "internalType": "bytes4",
          "name": "interfaceId",
          "type": "bytes4"
        }
      ],
      "name": "supportsInterface",
      "outputs": [
        {
          "internalType": "bool",
          "name": "",
          "type": "bool"
        }
      ],
      "stateMutability": "view",
      "type": "function"
    },
    {
      "inputs": [],
      "name": "symbol",
      "outputs": [
        {
          "internalType": "string",
          "name": "",
          "type": "string"
        }
      ],
      "stateMutability": "view",
      "type": "function"
    },
    {
      "inputs": [
        {
          "internalType": "uint256",
          "name": "tokenId",
          "type": "uint256"
        }
      ],
      "name": "tokenURI",
      "outputs": [
        {
          "internalType": "string",
          "name": "",
          "type": "string"
        }
      ],
      "stateMutability": "view",
      "type": "function"
    },
    {
      "inputs": [
        {
          "internalType": "address",
          "name": "from",
          "type": "address"
        },
        {
          "internalType": "address",
          "name": "to",
          "type": "address"
        },
        {
          "internalType": "uint256",
          "name": "tokenId",
          "type": "uint256"
        }
      ],
      "name": "transferFrom",
      "outputs": [],
      "stateMutability": "nonpayable",
      "type": "function"
    },
    {
      "inputs": [
        {
          "internalType": "uint256",
          "name": "_listingPrice",
          "type": "uint256"
        }
      ],
      "name": "updateListingPrice",
      "outputs": [],
      "stateMutability": "payable",
      "type": "function"
    }
  ],
  "bytecode": "0x608060405260006009553480156200001657600080fd5b506040518060400160405280601081526020017f4d657461766572736520546f6b656e73000000000000000000000000000000008152506040518060400160405280600481526020017f4d4554540000000000000000000000000000000000000000000000000000000081525081600090805190602001906200009b929190620000fe565b508060019080519060200190620000b4929190620000fe565b50505033600a60006101000a81548173ffffffffffffffffffffffffffffffffffffffff021916908373ffffffffffffffffffffffffffffffffffffffff16021790555062000213565b8280546200010c90620001ae565b90600052602060002090601f0160209004810192826200013057600085556200017c565b82601f106200014b57805160ff19168380011785556200017c565b828001600101855582156200017c579182015b828111156200017b5782518255916020019190600101906200015e565b5b5090506200018b91906200018f565b5090565b5b80821115620001aa57600081600090555060010162000190565b5090565b60006002820490506001821680620001c757607f821691505b60208210811415620001de57620001dd620001e4565b5b50919050565b7f4e487b7100000000000000000000000000000000000000000000000000000000600052602260045260246000fd5b61510180620002236000396000f3fe60806040526004361061014b5760003560e01c806370a08231116100b6578063be9af5361161006f578063be9af5361461049d578063c87b56dd146104b9578063c89f2cce146104f6578063dfb6452b14610521578063e219fc751461054c578063e985e9c5146105685761014b565b806370a082311461039757806372b3b620146103d457806395d89b4114610404578063a22cb4651461042f578063ae677aa314610458578063b88d4fde146104745761014b565b8063202e374011610108578063202e3740146102745780632142ae2c1461029f57806323b872dd146102dd57806342842e0e1461030657806345f8fa801461032f5780636352211e1461035a5761014b565b806301ffc9a71461015057806306fdde031461018d578063081812fc146101b8578063095ea7b3146101f55780630f08efe01461021e57806312e8558514610249575b600080fd5b34801561015c57600080fd5b5061017760048036038101906101729190613a77565b6105a5565b60405161018491906142a9565b60405180910390f35b34801561019957600080fd5b506101a2610687565b6040516101af91906142c4565b60405180910390f35b3480156101c457600080fd5b506101df60048036038101906101da9190613b1d565b610719565b6040516101ec91906141a4565b60405180910390f35b34801561020157600080fd5b5061021c60048036038101906102179190613a3b565b61079e565b005b34801561022a57600080fd5b506102336108b6565b6040516102409190614287565b60405180910390f35b34801561025557600080fd5b5061025e610bdc565b60405161026b91906145a6565b60405180910390f35b34801561028057600080fd5b50610289610be6565b6040516102969190614287565b60405180910390f35b3480156102ab57600080fd5b506102c660048036038101906102c19190613b1d565b610f91565b6040516102d4929190614250565b60405180910390f35b3480156102e957600080fd5b5061030460048036038101906102ff9190613935565b61109d565b005b34801561031257600080fd5b5061032d60048036038101906103289190613935565b6110fd565b005b34801561033b57600080fd5b5061034461111d565b6040516103519190614287565b60405180910390f35b34801561036657600080fd5b50610381600480360381019061037c9190613b1d565b6114c8565b60405161038e91906141a4565b60405180910390f35b3480156103a357600080fd5b506103be60048036038101906103b991906138d0565b61157a565b6040516103cb91906145a6565b60405180910390f35b6103ee60048036038101906103e99190613ac9565b611632565b6040516103fb91906145a6565b60405180910390f35b34801561041057600080fd5b50610419611674565b60405161042691906142c4565b60405180910390f35b34801561043b57600080fd5b50610456600480360381019061045191906139ff565b611706565b005b610472600480360381019061046d9190613b1d565b61171c565b005b34801561048057600080fd5b5061049b60048036038101906104969190613984565b6117b6565b005b6104b760048036038101906104b29190613b1d565b611818565b005b3480156104c557600080fd5b506104e060048036038101906104db9190613b1d565b611bd4565b6040516104ed91906142c4565b60405180910390f35b34801561050257600080fd5b5061050b611d26565b6040516105189190614287565b60405180910390f35b34801561052d57600080fd5b50610536612037565b6040516105439190614287565b60405180910390f35b61056660048036038101906105619190613b46565b6122c3565b005b34801561057457600080fd5b5061058f600480360381019061058a91906138f9565b6124e7565b60405161059c91906142a9565b60405180910390f35b60007f80ac58cd000000000000000000000000000000000000000000000000000000007bffffffffffffffffffffffffffffffffffffffffffffffffffffffff1916827bffffffffffffffffffffffffffffffffffffffffffffffffffffffff1916148061067057507f5b5e139f000000000000000000000000000000000000000000000000000000007bffffffffffffffffffffffffffffffffffffffffffffffffffffffff1916827bffffffffffffffffffffffffffffffffffffffffffffffffffffffff1916145b80610680575061067f8261257b565b5b9050919050565b606060008054610696906148b9565b80601f01602080910402602001604051908101604052809291908181526020018280546106c2906148b9565b801561070f5780601f106106e45761010080835404028352916020019161070f565b820191906000526020600020905b8154815290600101906020018083116106f257829003601f168201915b5050505050905090565b6000610724826125e5565b610763576040517f08c379a000000000000000000000000000000000000000000000000000000000815260040161075a906144e6565b60405180910390fd5b6004600083815260200190815260200160002060009054906101000a900473ffffffffffffffffffffffffffffffffffffffff169050919050565b60006107a9826114c8565b90508073ffffffffffffffffffffffffffffffffffffffff168373ffffffffffffffffffffffffffffffffffffffff16141561081a576040517f08c379a000000000000000000000000000000000000000000000000000000000815260040161081190614526565b60405180910390fd5b8073ffffffffffffffffffffffffffffffffffffffff16610839612651565b73ffffffffffffffffffffffffffffffffffffffff161480610868575061086781610862612651565b6124e7565b5b6108a7576040517f08c379a000000000000000000000000000000000000000000000000000000000815260040161089e906143e6565b60405180910390fd5b6108b18383612659565b505050565b606060006108c46007612712565b905060006108d26008612712565b6108dc6007612712565b6108e691906147bd565b90506000808267ffffffffffffffff81111561092b577f4e487b7100000000000000000000000000000000000000000000000000000000600052604160045260246000fd5b60405190808252806020026020018201604052801561096457816020015b610951613671565b8152602001906001900390816109495790505b50905060005b84811015610bd1573073ffffffffffffffffffffffffffffffffffffffff16600b600060018461099a9190614736565b815260200190815260200160002060020160009054906101000a900473ffffffffffffffffffffffffffffffffffffffff1673ffffffffffffffffffffffffffffffffffffffff161415610bbe5760006001826109f79190614736565b90506000600b60008381526020019081526020016000209050806040518060e0016040529081600082015481526020016001820160009054906101000a900473ffffffffffffffffffffffffffffffffffffffff1673ffffffffffffffffffffffffffffffffffffffff1673ffffffffffffffffffffffffffffffffffffffff1681526020016002820160009054906101000a900473ffffffffffffffffffffffffffffffffffffffff1673ffffffffffffffffffffffffffffffffffffffff1673ffffffffffffffffffffffffffffffffffffffff168152602001600382015481526020016004820160009054906101000a900460ff161515151581526020016004820160019054906101000a900473ffffffffffffffffffffffffffffffffffffffff1673ffffffffffffffffffffffffffffffffffffffff1673ffffffffffffffffffffffffffffffffffffffff1681526020016004820160159054906101000a900460ff161515151581525050848681518110610ba1577f4e487b7100000000000000000000000000000000000000000000000000000000600052603260045260246000fd5b6020026020010181905250600185610bb99190614736565b945050505b8080610bc99061491c565b91505061096a565b508094505050505090565b6000600954905090565b60606000610bf46007612712565b905060008060005b83811015610c9d573373ffffffffffffffffffffffffffffffffffffffff16600b6000600184610c2c9190614736565b815260200190815260200160002060020160009054906101000a900473ffffffffffffffffffffffffffffffffffffffff1673ffffffffffffffffffffffffffffffffffffffff161415610c8a57600183610c879190614736565b92505b8080610c959061491c565b915050610bfc565b5060008267ffffffffffffffff811115610ce0577f4e487b7100000000000000000000000000000000000000000000000000000000600052604160045260246000fd5b604051908082528060200260200182016040528015610d1957816020015b610d06613671565b815260200190600190039081610cfe5790505b50905060005b84811015610f86573373ffffffffffffffffffffffffffffffffffffffff16600b6000600184610d4f9190614736565b815260200190815260200160002060020160009054906101000a900473ffffffffffffffffffffffffffffffffffffffff1673ffffffffffffffffffffffffffffffffffffffff161415610f73576000600182610dac9190614736565b90506000600b60008381526020019081526020016000209050806040518060e0016040529081600082015481526020016001820160009054906101000a900473ffffffffffffffffffffffffffffffffffffffff1673ffffffffffffffffffffffffffffffffffffffff1673ffffffffffffffffffffffffffffffffffffffff1681526020016002820160009054906101000a900473ffffffffffffffffffffffffffffffffffffffff1673ffffffffffffffffffffffffffffffffffffffff1673ffffffffffffffffffffffffffffffffffffffff168152602001600382015481526020016004820160009054906101000a900460ff161515151581526020016004820160019054906101000a900473ffffffffffffffffffffffffffffffffffffffff1673ffffffffffffffffffffffffffffffffffffffff1673ffffffffffffffffffffffffffffffffffffffff1681526020016004820160159054906101000a900460ff161515151581525050848681518110610f56577f4e487b7100000000000000000000000000000000000000000000000000000000600052603260045260246000fd5b6020026020010181905250600185610f6e9190614736565b945050505b8080610f7e9061491c565b915050610d1f565b508094505050505090565b606080600c6000848152602001908152602001600020600d60008581526020019081526020016000208180548060200260200160405190810160405280929190818152602001828054801561103b57602002820191906000526020600020905b8160009054906101000a900473ffffffffffffffffffffffffffffffffffffffff1673ffffffffffffffffffffffffffffffffffffffff1681526020019060010190808311610ff1575b505050505091508080548060200260200160405190810160405280929190818152602001828054801561108d57602002820191906000526020600020905b815481526020019060010190808311611079575b5050505050905091509150915091565b6110ae6110a8612651565b82612720565b6110ed576040517f08c379a00000000000000000000000000000000000000000000000000000000081526004016110e490614566565b60405180910390fd5b6110f88383836127fe565b505050565b611118838383604051806020016040528060008152506117b6565b505050565b6060600061112b6007612712565b905060008060005b838110156111d4573373ffffffffffffffffffffffffffffffffffffffff16600b60006001846111639190614736565b815260200190815260200160002060010160009054906101000a900473ffffffffffffffffffffffffffffffffffffffff1673ffffffffffffffffffffffffffffffffffffffff1614156111c1576001836111be9190614736565b92505b80806111cc9061491c565b915050611133565b5060008267ffffffffffffffff811115611217577f4e487b7100000000000000000000000000000000000000000000000000000000600052604160045260246000fd5b60405190808252806020026020018201604052801561125057816020015b61123d613671565b8152602001906001900390816112355790505b50905060005b848110156114bd573373ffffffffffffffffffffffffffffffffffffffff16600b60006001846112869190614736565b815260200190815260200160002060010160009054906101000a900473ffffffffffffffffffffffffffffffffffffffff1673ffffffffffffffffffffffffffffffffffffffff1614156114aa5760006001826112e39190614736565b90506000600b60008381526020019081526020016000209050806040518060e0016040529081600082015481526020016001820160009054906101000a900473ffffffffffffffffffffffffffffffffffffffff1673ffffffffffffffffffffffffffffffffffffffff1673ffffffffffffffffffffffffffffffffffffffff1681526020016002820160009054906101000a900473ffffffffffffffffffffffffffffffffffffffff1673ffffffffffffffffffffffffffffffffffffffff1673ffffffffffffffffffffffffffffffffffffffff168152602001600382015481526020016004820160009054906101000a900460ff161515151581526020016004820160019054906101000a900473ffffffffffffffffffffffffffffffffffffffff1673ffffffffffffffffffffffffffffffffffffffff1673ffffffffffffffffffffffffffffffffffffffff1681526020016004820160159054906101000a900460ff16151515158152505084868151811061148d577f4e487b7100000000000000000000000000000000000000000000000000000000600052603260045260246000fd5b60200260200101819052506001856114a59190614736565b945050505b80806114b59061491c565b915050611256565b508094505050505090565b6000806002600084815260200190815260200160002060009054906101000a900473ffffffffffffffffffffffffffffffffffffffff169050600073ffffffffffffffffffffffffffffffffffffffff168173ffffffffffffffffffffffffffffffffffffffff161415611571576040517f08c379a000000000000000000000000000000000000000000000000000000000815260040161156890614426565b60405180910390fd5b80915050919050565b60008073ffffffffffffffffffffffffffffffffffffffff168273ffffffffffffffffffffffffffffffffffffffff1614156115eb576040517f08c379a00000000000000000000000000000000000000000000000000000000081526004016115e290614406565b60405180910390fd5b600360008373ffffffffffffffffffffffffffffffffffffffff1673ffffffffffffffffffffffffffffffffffffffff168152602001908152602001600020549050919050565b600061163e6007612a65565b600061164a6007612712565b90506116563382612a7b565b6116608185612c55565b61166a8184612cc9565b8091505092915050565b606060018054611683906148b9565b80601f01602080910402602001604051908101604052809291908181526020018280546116af906148b9565b80156116fc5780601f106116d1576101008083540402835291602001916116fc565b820191906000526020600020905b8154815290600101906020018083116116df57829003601f168201915b5050505050905090565b611718611711612651565b838361301d565b5050565b3373ffffffffffffffffffffffffffffffffffffffff16600a60009054906101000a900473ffffffffffffffffffffffffffffffffffffffff1673ffffffffffffffffffffffffffffffffffffffff16146117ac576040517f08c379a00000000000000000000000000000000000000000000000000000000081526004016117a390614586565b60405180910390fd5b8060098190555050565b6117c76117c1612651565b83612720565b611806576040517f08c379a00000000000000000000000000000000000000000000000000000000081526004016117fd90614566565b60405180910390fd5b6118128484848461318a565b50505050565b6000600b60008381526020019081526020016000206003015490506000600b600084815260200190815260200160002060010160009054906101000a900473ffffffffffffffffffffffffffffffffffffffff1690508134146118b0576040517f08c379a00000000000000000000000000000000000000000000000000000000081526004016118a790614466565b60405180910390fd5b33600b600085815260200190815260200160002060020160006101000a81548173ffffffffffffffffffffffffffffffffffffffff021916908373ffffffffffffffffffffffffffffffffffffffff1602179055506001600b600085815260200190815260200160002060040160006101000a81548160ff0219169083151502179055506000600b600085815260200190815260200160002060010160006101000a81548173ffffffffffffffffffffffffffffffffffffffff021916908373ffffffffffffffffffffffffffffffffffffffff16021790555033600b600085815260200190815260200160002060040160016101000a81548173ffffffffffffffffffffffffffffffffffffffff021916908373ffffffffffffffffffffffffffffffffffffffff1602179055506000600b600085815260200190815260200160002060040160156101000a81548160ff021916908315150217905550611a186008612a65565b611a233033856127fe565b600a60009054906101000a900473ffffffffffffffffffffffffffffffffffffffff1673ffffffffffffffffffffffffffffffffffffffff166108fc6009549081150290604051600060405180830381858888f19350505050158015611a8d573d6000803e3d6000fd5b508073ffffffffffffffffffffffffffffffffffffffff166108fc349081150290604051600060405180830381858888f19350505050158015611ad4573d6000803e3d6000fd5b50600c6000848152602001908152602001600020600b600085815260200190815260200160002060020160009054906101000a900473ffffffffffffffffffffffffffffffffffffffff169080600181540180825580915050600190039060005260206000200160009091909190916101000a81548173ffffffffffffffffffffffffffffffffffffffff021916908373ffffffffffffffffffffffffffffffffffffffff160217905550600d6000848152602001908152602001600020600b6000858152602001908152602001600020600301549080600181540180825580915050600190039060005260206000200160009091909190915055505050565b6060611bdf826125e5565b611c1e576040517f08c379a0000000000000000000000000000000000000000000000000000000008152600401611c15906144a6565b60405180910390fd5b6000600660008481526020019081526020016000208054611c3e906148b9565b80601f0160208091040260200160405190810160405280929190818152602001828054611c6a906148b9565b8015611cb75780601f10611c8c57610100808354040283529160200191611cb7565b820191906000526020600020905b815481529060010190602001808311611c9a57829003601f168201915b505050505090506000611cc86131e6565b9050600081511415611cde578192505050611d21565b600082511115611d13578082604051602001611cfb929190614180565b60405160208183030381529060405292505050611d21565b611d1c846131fd565b925050505b919050565b60606000611d346007612712565b90506000611d426008612712565b90506000808267ffffffffffffffff811115611d87577f4e487b7100000000000000000000000000000000000000000000000000000000600052604160045260246000fd5b604051908082528060200260200182016040528015611dc057816020015b611dad613671565b815260200190600190039081611da55790505b50905060005b8481101561202c573073ffffffffffffffffffffffffffffffffffffffff16600b6000600184611df69190614736565b815260200190815260200160002060020160009054906101000a900473ffffffffffffffffffffffffffffffffffffffff1673ffffffffffffffffffffffffffffffffffffffff1614612019576000600182611e529190614736565b90506000600b60008381526020019081526020016000209050806040518060e0016040529081600082015481526020016001820160009054906101000a900473ffffffffffffffffffffffffffffffffffffffff1673ffffffffffffffffffffffffffffffffffffffff1673ffffffffffffffffffffffffffffffffffffffff1681526020016002820160009054906101000a900473ffffffffffffffffffffffffffffffffffffffff1673ffffffffffffffffffffffffffffffffffffffff1673ffffffffffffffffffffffffffffffffffffffff168152602001600382015481526020016004820160009054906101000a900460ff161515151581526020016004820160019054906101000a900473ffffffffffffffffffffffffffffffffffffffff1673ffffffffffffffffffffffffffffffffffffffff1673ffffffffffffffffffffffffffffffffffffffff1681526020016004820160159054906101000a900460ff161515151581525050848681518110611ffc577f4e487b7100000000000000000000000000000000000000000000000000000000600052603260045260246000fd5b60200260200101819052506001856120149190614736565b945050505b80806120249061491c565b915050611dc6565b508094505050505090565b606060006120456007612712565b90506000808267ffffffffffffffff81111561208a577f4e487b7100000000000000000000000000000000000000000000000000000000600052604160045260246000fd5b6040519080825280602002602001820160405280156120c357816020015b6120b0613671565b8152602001906001900390816120a85790505b50905060005b838110156122b95760006001826120e09190614736565b90506000600b60008381526020019081526020016000209050806040518060e0016040529081600082015481526020016001820160009054906101000a900473ffffffffffffffffffffffffffffffffffffffff1673ffffffffffffffffffffffffffffffffffffffff1673ffffffffffffffffffffffffffffffffffffffff1681526020016002820160009054906101000a900473ffffffffffffffffffffffffffffffffffffffff1673ffffffffffffffffffffffffffffffffffffffff1673ffffffffffffffffffffffffffffffffffffffff168152602001600382015481526020016004820160009054906101000a900460ff161515151581526020016004820160019054906101000a900473ffffffffffffffffffffffffffffffffffffffff1673ffffffffffffffffffffffffffffffffffffffff1673ffffffffffffffffffffffffffffffffffffffff1681526020016004820160159054906101000a900460ff16151515158152505084868151811061228a577f4e487b7100000000000000000000000000000000000000000000000000000000600052603260045260246000fd5b60200260200101819052506001856122a29190614736565b9450505080806122b19061491c565b9150506120c9565b5080935050505090565b3373ffffffffffffffffffffffffffffffffffffffff16600b600084815260200190815260200160002060020160009054906101000a900473ffffffffffffffffffffffffffffffffffffffff1673ffffffffffffffffffffffffffffffffffffffff1614612367576040517f08c379a000000000000000000000000000000000000000000000000000000000815260040161235e906144c6565b60405180910390fd5b60095434146123ab576040517f08c379a00000000000000000000000000000000000000000000000000000000081526004016123a290614546565b60405180910390fd5b6000600b600084815260200190815260200160002060040160006101000a81548160ff02191690831515021790555080600b60008481526020019081526020016000206003018190555033600b600084815260200190815260200160002060010160006101000a81548173ffffffffffffffffffffffffffffffffffffffff021916908373ffffffffffffffffffffffffffffffffffffffff16021790555030600b600084815260200190815260200160002060020160006101000a81548173ffffffffffffffffffffffffffffffffffffffff021916908373ffffffffffffffffffffffffffffffffffffffff1602179055506001600b600084815260200190815260200160002060040160156101000a81548160ff0219169083151502179055506124d860086132a4565b6124e33330846127fe565b5050565b6000600560008473ffffffffffffffffffffffffffffffffffffffff1673ffffffffffffffffffffffffffffffffffffffff16815260200190815260200160002060008373ffffffffffffffffffffffffffffffffffffffff1673ffffffffffffffffffffffffffffffffffffffff16815260200190815260200160002060009054906101000a900460ff16905092915050565b60007f01ffc9a7000000000000000000000000000000000000000000000000000000007bffffffffffffffffffffffffffffffffffffffffffffffffffffffff1916827bffffffffffffffffffffffffffffffffffffffffffffffffffffffff1916149050919050565b60008073ffffffffffffffffffffffffffffffffffffffff166002600084815260200190815260200160002060009054906101000a900473ffffffffffffffffffffffffffffffffffffffff1673ffffffffffffffffffffffffffffffffffffffff1614159050919050565b600033905090565b816004600083815260200190815260200160002060006101000a81548173ffffffffffffffffffffffffffffffffffffffff021916908373ffffffffffffffffffffffffffffffffffffffff160217905550808273ffffffffffffffffffffffffffffffffffffffff166126cc836114c8565b73ffffffffffffffffffffffffffffffffffffffff167f8c5be1e5ebec7d5bd14f71427d1e84f3dd0314c0f7b2291e5b200ac8c7c3b92560405160405180910390a45050565b600081600001549050919050565b600061272b826125e5565b61276a576040517f08c379a0000000000000000000000000000000000000000000000000000000008152600401612761906143c6565b60405180910390fd5b6000612775836114c8565b90508073ffffffffffffffffffffffffffffffffffffffff168473ffffffffffffffffffffffffffffffffffffffff1614806127e457508373ffffffffffffffffffffffffffffffffffffffff166127cc84610719565b73ffffffffffffffffffffffffffffffffffffffff16145b806127f557506127f481856124e7565b5b91505092915050565b8273ffffffffffffffffffffffffffffffffffffffff1661281e826114c8565b73ffffffffffffffffffffffffffffffffffffffff1614612874576040517f08c379a000000000000000000000000000000000000000000000000000000000815260040161286b90614346565b60405180910390fd5b600073ffffffffffffffffffffffffffffffffffffffff168273ffffffffffffffffffffffffffffffffffffffff1614156128e4576040517f08c379a00000000000000000000000000000000000000000000000000000000081526004016128db90614386565b60405180910390fd5b6128ef838383613300565b6128fa600082612659565b6001600360008573ffffffffffffffffffffffffffffffffffffffff1673ffffffffffffffffffffffffffffffffffffffff168152602001908152602001600020600082825461294a91906147bd565b925050819055506001600360008473ffffffffffffffffffffffffffffffffffffffff1673ffffffffffffffffffffffffffffffffffffffff16815260200190815260200160002060008282546129a19190614736565b92505081905550816002600083815260200190815260200160002060006101000a81548173ffffffffffffffffffffffffffffffffffffffff021916908373ffffffffffffffffffffffffffffffffffffffff160217905550808273ffffffffffffffffffffffffffffffffffffffff168473ffffffffffffffffffffffffffffffffffffffff167fddf252ad1be2c89b69c2b068fc378daa952ba7f163c4a11628f55a4df523b3ef60405160405180910390a4612a60838383613305565b505050565b6001816000016000828254019250508190555050565b600073ffffffffffffffffffffffffffffffffffffffff168273ffffffffffffffffffffffffffffffffffffffff161415612aeb576040517f08c379a0000000000000000000000000000000000000000000000000000000008152600401612ae290614486565b60405180910390fd5b612af4816125e5565b15612b34576040517f08c379a0000000000000000000000000000000000000000000000000000000008152600401612b2b90614366565b60405180910390fd5b612b4060008383613300565b6001600360008473ffffffffffffffffffffffffffffffffffffffff1673ffffffffffffffffffffffffffffffffffffffff1681526020019081526020016000206000828254612b909190614736565b92505081905550816002600083815260200190815260200160002060006101000a81548173ffffffffffffffffffffffffffffffffffffffff021916908373ffffffffffffffffffffffffffffffffffffffff160217905550808273ffffffffffffffffffffffffffffffffffffffff16600073ffffffffffffffffffffffffffffffffffffffff167fddf252ad1be2c89b69c2b068fc378daa952ba7f163c4a11628f55a4df523b3ef60405160405180910390a4612c5160008383613305565b5050565b612c5e826125e5565b612c9d576040517f08c379a0000000000000000000000000000000000000000000000000000000008152600401612c9490614446565b60405180910390fd5b80600660008481526020019081526020016000209080519060200190612cc49291906136f4565b505050565b60008111612d0c576040517f08c379a0000000000000000000000000000000000000000000000000000000008152600401612d0390614326565b60405180910390fd5b6009543414612d50576040517f08c379a0000000000000000000000000000000000000000000000000000000008152600401612d4790614546565b60405180910390fd5b6040518060e001604052808381526020013373ffffffffffffffffffffffffffffffffffffffff1681526020013073ffffffffffffffffffffffffffffffffffffffff168152602001828152602001600015158152602001600073ffffffffffffffffffffffffffffffffffffffff16815260200160011515815250600b60008481526020019081526020016000206000820151816000015560208201518160010160006101000a81548173ffffffffffffffffffffffffffffffffffffffff021916908373ffffffffffffffffffffffffffffffffffffffff16021790555060408201518160020160006101000a81548173ffffffffffffffffffffffffffffffffffffffff021916908373ffffffffffffffffffffffffffffffffffffffff1602179055506060820151816003015560808201518160040160006101000a81548160ff02191690831515021790555060a08201518160040160016101000a81548173ffffffffffffffffffffffffffffffffffffffff021916908373ffffffffffffffffffffffffffffffffffffffff16021790555060c08201518160040160156101000a81548160ff021916908315150217905550905050600c6000838152602001908152602001600020339080600181540180825580915050600190039060005260206000200160009091909190916101000a81548173ffffffffffffffffffffffffffffffffffffffff021916908373ffffffffffffffffffffffffffffffffffffffff160217905550600d6000838152602001908152602001600020600b6000848152602001908152602001600020600301549080600181540180825580915050600190039060005260206000200160009091909190915055612fda3330846127fe565b817fb640004f1d14576d0c209e240cad0410e0d8c0c33a09375861fbadae2588a98d333084600060405161301194939291906141bf565b60405180910390a25050565b8173ffffffffffffffffffffffffffffffffffffffff168373ffffffffffffffffffffffffffffffffffffffff16141561308c576040517f08c379a0000000000000000000000000000000000000000000000000000000008152600401613083906143a6565b60405180910390fd5b80600560008573ffffffffffffffffffffffffffffffffffffffff1673ffffffffffffffffffffffffffffffffffffffff16815260200190815260200160002060008473ffffffffffffffffffffffffffffffffffffffff1673ffffffffffffffffffffffffffffffffffffffff16815260200190815260200160002060006101000a81548160ff0219169083151502179055508173ffffffffffffffffffffffffffffffffffffffff168373ffffffffffffffffffffffffffffffffffffffff167f17307eab39ab6107e8899845ad3d59bd9653f200f220920489ca2b5937696c318360405161317d91906142a9565b60405180910390a3505050565b6131958484846127fe565b6131a18484848461330a565b6131e0576040517f08c379a00000000000000000000000000000000000000000000000000000000081526004016131d790614306565b60405180910390fd5b50505050565b606060405180602001604052806000815250905090565b6060613208826125e5565b613247576040517f08c379a000000000000000000000000000000000000000000000000000000000815260040161323e90614506565b60405180910390fd5b60006132516131e6565b90506000815111613271576040518060200160405280600081525061329c565b8061327b846134a1565b60405160200161328c929190614180565b6040516020818303038152906040525b915050919050565b600081600001549050600081116132f0576040517f08c379a00000000000000000000000000000000000000000000000000000000081526004016132e7906142e6565b60405180910390fd5b6001810382600001819055505050565b505050565b505050565b600061332b8473ffffffffffffffffffffffffffffffffffffffff1661364e565b15613494578373ffffffffffffffffffffffffffffffffffffffff1663150b7a02613354612651565b8786866040518563ffffffff1660e01b81526004016133769493929190614204565b602060405180830381600087803b15801561339057600080fd5b505af19250505080156133c157506040513d601f19601f820116820180604052508101906133be9190613aa0565b60015b613444573d80600081146133f1576040519150601f19603f3d011682016040523d82523d6000602084013e6133f6565b606091505b5060008151141561343c576040517f08c379a000000000000000000000000000000000000000000000000000000000815260040161343390614306565b60405180910390fd5b805181602001fd5b63150b7a0260e01b7bffffffffffffffffffffffffffffffffffffffffffffffffffffffff1916817bffffffffffffffffffffffffffffffffffffffffffffffffffffffff191614915050613499565b600190505b949350505050565b606060008214156134e9576040518060400160405280600181526020017f30000000000000000000000000000000000000000000000000000000000000008152509050613649565b600082905060005b6000821461351b5780806135049061491c565b915050600a82613514919061478c565b91506134f1565b60008167ffffffffffffffff81111561355d577f4e487b7100000000000000000000000000000000000000000000000000000000600052604160045260246000fd5b6040519080825280601f01601f19166020018201604052801561358f5781602001600182028036833780820191505090505b5090505b60008514613642576001826135a891906147bd565b9150600a856135b79190614965565b60306135c39190614736565b60f81b8183815181106135ff577f4e487b7100000000000000000000000000000000000000000000000000000000600052603260045260246000fd5b60200101907effffffffffffffffffffffffffffffffffffffffffffffffffffffffffffff1916908160001a905350600a8561363b919061478c565b9450613593565b8093505050505b919050565b6000808273ffffffffffffffffffffffffffffffffffffffff163b119050919050565b6040518060e0016040528060008152602001600073ffffffffffffffffffffffffffffffffffffffff168152602001600073ffffffffffffffffffffffffffffffffffffffff16815260200160008152602001600015158152602001600073ffffffffffffffffffffffffffffffffffffffff1681526020016000151581525090565b828054613700906148b9565b90600052602060002090601f0160209004810192826137225760008555613769565b82601f1061373b57805160ff1916838001178555613769565b82800160010185558215613769579182015b8281111561376857825182559160200191906001019061374d565b5b509050613776919061377a565b5090565b5b8082111561379357600081600090555060010161377b565b5090565b60006137aa6137a5846145e6565b6145c1565b9050828152602081018484840111156137c257600080fd5b6137cd848285614877565b509392505050565b60006137e86137e384614617565b6145c1565b90508281526020810184848401111561380057600080fd5b61380b848285614877565b509392505050565b6000813590506138228161506f565b92915050565b60008135905061383781615086565b92915050565b60008135905061384c8161509d565b92915050565b6000815190506138618161509d565b92915050565b600082601f83011261387857600080fd5b8135613888848260208601613797565b91505092915050565b600082601f8301126138a257600080fd5b81356138b28482602086016137d5565b91505092915050565b6000813590506138ca816150b4565b92915050565b6000602082840312156138e257600080fd5b60006138f084828501613813565b91505092915050565b6000806040838503121561390c57600080fd5b600061391a85828601613813565b925050602061392b85828601613813565b9150509250929050565b60008060006060848603121561394a57600080fd5b600061395886828701613813565b935050602061396986828701613813565b925050604061397a868287016138bb565b9150509250925092565b6000806000806080858703121561399a57600080fd5b60006139a887828801613813565b94505060206139b987828801613813565b93505060406139ca878288016138bb565b925050606085013567ffffffffffffffff8111156139e757600080fd5b6139f387828801613867565b91505092959194509250565b60008060408385031215613a1257600080fd5b6000613a2085828601613813565b9250506020613a3185828601613828565b9150509250929050565b60008060408385031215613a4e57600080fd5b6000613a5c85828601613813565b9250506020613a6d858286016138bb565b9150509250929050565b600060208284031215613a8957600080fd5b6000613a978482850161383d565b91505092915050565b600060208284031215613ab257600080fd5b6000613ac084828501613852565b91505092915050565b60008060408385031215613adc57600080fd5b600083013567ffffffffffffffff811115613af657600080fd5b613b0285828601613891565b9250506020613b13858286016138bb565b9150509250929050565b600060208284031215613b2f57600080fd5b6000613b3d848285016138bb565b91505092915050565b60008060408385031215613b5957600080fd5b6000613b67858286016138bb565b9250506020613b78858286016138bb565b9150509250929050565b6000613b8e8383613bd9565b60208301905092915050565b6000613ba683836140d4565b60e08301905092915050565b6000613bbe8383614162565b60208301905092915050565b613bd381614803565b82525050565b613be2816147f1565b82525050565b613bf1816147f1565b82525050565b6000613c0282614678565b613c0c81856146d6565b9350613c1783614648565b8060005b83811015613c48578151613c2f8882613b82565b9750613c3a836146af565b925050600181019050613c1b565b5085935050505092915050565b6000613c6082614683565b613c6a81856146e7565b9350613c7583614658565b8060005b83811015613ca6578151613c8d8882613b9a565b9750613c98836146bc565b925050600181019050613c79565b5085935050505092915050565b6000613cbe8261468e565b613cc881856146f8565b9350613cd383614668565b8060005b83811015613d04578151613ceb8882613bb2565b9750613cf6836146c9565b925050600181019050613cd7565b5085935050505092915050565b613d1a81614815565b82525050565b613d2981614815565b82525050565b6000613d3a82614699565b613d448185614709565b9350613d54818560208601614886565b613d5d81614a52565b840191505092915050565b6000613d73826146a4565b613d7d818561471a565b9350613d8d818560208601614886565b613d9681614a52565b840191505092915050565b6000613dac826146a4565b613db6818561472b565b9350613dc6818560208601614886565b80840191505092915050565b6000613ddf601b8361471a565b9150613dea82614a63565b602082019050919050565b6000613e0260328361471a565b9150613e0d82614a8c565b604082019050919050565b6000613e25601c8361471a565b9150613e3082614adb565b602082019050919050565b6000613e4860258361471a565b9150613e5382614b04565b604082019050919050565b6000613e6b601c8361471a565b9150613e7682614b53565b602082019050919050565b6000613e8e60248361471a565b9150613e9982614b7c565b604082019050919050565b6000613eb160198361471a565b9150613ebc82614bcb565b602082019050919050565b6000613ed4602c8361471a565b9150613edf82614bf4565b604082019050919050565b6000613ef760388361471a565b9150613f0282614c43565b604082019050919050565b6000613f1a602a8361471a565b9150613f2582614c92565b604082019050919050565b6000613f3d60298361471a565b9150613f4882614ce1565b604082019050919050565b6000613f60602e8361471a565b9150613f6b82614d30565b604082019050919050565b6000613f8360408361471a565b9150613f8e82614d7f565b604082019050919050565b6000613fa660208361471a565b9150613fb182614dce565b602082019050919050565b6000613fc960318361471a565b9150613fd482614df7565b604082019050919050565b6000613fec602a8361471a565b9150613ff782614e46565b604082019050919050565b600061400f602c8361471a565b915061401a82614e95565b604082019050919050565b6000614032602f8361471a565b915061403d82614ee4565b604082019050919050565b600061405560218361471a565b915061406082614f33565b604082019050919050565b600061407860248361471a565b915061408382614f82565b604082019050919050565b600061409b60318361471a565b91506140a682614fd1565b604082019050919050565b60006140be60308361471a565b91506140c982615020565b604082019050919050565b60e0820160008201516140ea6000850182614162565b5060208201516140fd6020850182613bca565b5060408201516141106040850182613bca565b5060608201516141236060850182614162565b5060808201516141366080850182613d11565b5060a082015161414960a0850182613bd9565b5060c082015161415c60c0850182613d11565b50505050565b61416b8161486d565b82525050565b61417a8161486d565b82525050565b600061418c8285613da1565b91506141988284613da1565b91508190509392505050565b60006020820190506141b96000830184613be8565b92915050565b60006080820190506141d46000830187613be8565b6141e16020830186613be8565b6141ee6040830185614171565b6141fb6060830184613d20565b95945050505050565b60006080820190506142196000830187613be8565b6142266020830186613be8565b6142336040830185614171565b81810360608301526142458184613d2f565b905095945050505050565b6000604082019050818103600083015261426a8185613bf7565b9050818103602083015261427e8184613cb3565b90509392505050565b600060208201905081810360008301526142a18184613c55565b905092915050565b60006020820190506142be6000830184613d20565b92915050565b600060208201905081810360008301526142de8184613d68565b905092915050565b600060208201905081810360008301526142ff81613dd2565b9050919050565b6000602082019050818103600083015261431f81613df5565b9050919050565b6000602082019050818103600083015261433f81613e18565b9050919050565b6000602082019050818103600083015261435f81613e3b565b9050919050565b6000602082019050818103600083015261437f81613e5e565b9050919050565b6000602082019050818103600083015261439f81613e81565b9050919050565b600060208201905081810360008301526143bf81613ea4565b9050919050565b600060208201905081810360008301526143df81613ec7565b9050919050565b600060208201905081810360008301526143ff81613eea565b9050919050565b6000602082019050818103600083015261441f81613f0d565b9050919050565b6000602082019050818103600083015261443f81613f30565b9050919050565b6000602082019050818103600083015261445f81613f53565b9050919050565b6000602082019050818103600083015261447f81613f76565b9050919050565b6000602082019050818103600083015261449f81613f99565b9050919050565b600060208201905081810360008301526144bf81613fbc565b9050919050565b600060208201905081810360008301526144df81613fdf565b9050919050565b600060208201905081810360008301526144ff81614002565b9050919050565b6000602082019050818103600083015261451f81614025565b9050919050565b6000602082019050818103600083015261453f81614048565b9050919050565b6000602082019050818103600083015261455f8161406b565b9050919050565b6000602082019050818103600083015261457f8161408e565b9050919050565b6000602082019050818103600083015261459f816140b1565b9050919050565b60006020820190506145bb6000830184614171565b92915050565b60006145cb6145dc565b90506145d782826148eb565b919050565b6000604051905090565b600067ffffffffffffffff82111561460157614600614a23565b5b61460a82614a52565b9050602081019050919050565b600067ffffffffffffffff82111561463257614631614a23565b5b61463b82614a52565b9050602081019050919050565b6000819050602082019050919050565b6000819050602082019050919050565b6000819050602082019050919050565b600081519050919050565b600081519050919050565b600081519050919050565b600081519050919050565b600081519050919050565b6000602082019050919050565b6000602082019050919050565b6000602082019050919050565b600082825260208201905092915050565b600082825260208201905092915050565b600082825260208201905092915050565b600082825260208201905092915050565b600082825260208201905092915050565b600081905092915050565b60006147418261486d565b915061474c8361486d565b9250827fffffffffffffffffffffffffffffffffffffffffffffffffffffffffffffffff0382111561478157614780614996565b5b828201905092915050565b60006147978261486d565b91506147a28361486d565b9250826147b2576147b16149c5565b5b828204905092915050565b60006147c88261486d565b91506147d38361486d565b9250828210156147e6576147e5614996565b5b828203905092915050565b60006147fc8261484d565b9050919050565b600061480e8261484d565b9050919050565b60008115159050919050565b60007fffffffff0000000000000000000000000000000000000000000000000000000082169050919050565b600073ffffffffffffffffffffffffffffffffffffffff82169050919050565b6000819050919050565b82818337600083830152505050565b60005b838110156148a4578082015181840152602081019050614889565b838111156148b3576000848401525b50505050565b600060028204905060018216806148d157607f821691505b602082108114156148e5576148e46149f4565b5b50919050565b6148f482614a52565b810181811067ffffffffffffffff8211171561491357614912614a23565b5b80604052505050565b60006149278261486d565b91507fffffffffffffffffffffffffffffffffffffffffffffffffffffffffffffffff82141561495a57614959614996565b5b600182019050919050565b60006149708261486d565b915061497b8361486d565b92508261498b5761498a6149c5565b5b828206905092915050565b7f4e487b7100000000000000000000000000000000000000000000000000000000600052601160045260246000fd5b7f4e487b7100000000000000000000000000000000000000000000000000000000600052601260045260246000fd5b7f4e487b7100000000000000000000000000000000000000000000000000000000600052602260045260246000fd5b7f4e487b7100000000000000000000000000000000000000000000000000000000600052604160045260246000fd5b6000601f19601f8301169050919050565b7f436f756e7465723a2064656372656d656e74206f766572666c6f770000000000600082015250565b7f4552433732313a207472616e7366657220746f206e6f6e20455243373231526560008201527f63656976657220696d706c656d656e7465720000000000000000000000000000602082015250565b7f5072696365206d757374206265206174206c6561737420312045544800000000600082015250565b7f4552433732313a207472616e736665722066726f6d20696e636f72726563742060008201527f6f776e6572000000000000000000000000000000000000000000000000000000602082015250565b7f4552433732313a20746f6b656e20616c7265616479206d696e74656400000000600082015250565b7f4552433732313a207472616e7366657220746f20746865207a65726f2061646460008201527f7265737300000000000000000000000000000000000000000000000000000000602082015250565b7f4552433732313a20617070726f766520746f2063616c6c657200000000000000600082015250565b7f4552433732313a206f70657261746f7220717565727920666f72206e6f6e657860008201527f697374656e7420746f6b656e0000000000000000000000000000000000000000602082015250565b7f4552433732313a20617070726f76652063616c6c6572206973206e6f74206f7760008201527f6e6572206e6f7220617070726f76656420666f7220616c6c0000000000000000602082015250565b7f4552433732313a2062616c616e636520717565727920666f7220746865207a6560008201527f726f206164647265737300000000000000000000000000000000000000000000602082015250565b7f4552433732313a206f776e657220717565727920666f72206e6f6e657869737460008201527f656e7420746f6b656e0000000000000000000000000000000000000000000000602082015250565b7f45524337323155524953746f726167653a2055524920736574206f66206e6f6e60008201527f6578697374656e7420746f6b656e000000000000000000000000000000000000602082015250565b7f506c65617365207375626d6974207468652061736b696e67207072696365206960008201527f6e206f7264657220746f20636f6d706c65746520746865207075726368617365602082015250565b7f4552433732313a206d696e7420746f20746865207a65726f2061646472657373600082015250565b7f45524337323155524953746f726167653a2055524920717565727920666f722060008201527f6e6f6e6578697374656e7420746f6b656e000000000000000000000000000000602082015250565b7f4f6e6c79206974656d206f776e65722063616e20706572666f726d207468697360008201527f206f7065726174696f6e00000000000000000000000000000000000000000000602082015250565b7f4552433732313a20617070726f76656420717565727920666f72206e6f6e657860008201527f697374656e7420746f6b656e0000000000000000000000000000000000000000602082015250565b7f4552433732314d657461646174613a2055524920717565727920666f72206e6f60008201527f6e6578697374656e7420746f6b656e0000000000000000000000000000000000602082015250565b7f4552433732313a20617070726f76616c20746f2063757272656e74206f776e6560008201527f7200000000000000000000000000000000000000000000000000000000000000602082015250565b7f5072696365206d75737420626520657175616c20746f206c697374696e67207060008201527f7269636500000000000000000000000000000000000000000000000000000000602082015250565b7f4552433732313a207472616e736665722063616c6c6572206973206e6f74206f60008201527f776e6572206e6f7220617070726f766564000000000000000000000000000000602082015250565b7f4f6e6c79206d61726b6574706c616365206f776e65722063616e20757064617460008201527f65206c697374696e672070726963652e00000000000000000000000000000000602082015250565b615078816147f1565b811461508357600080fd5b50565b61508f81614815565b811461509a57600080fd5b50565b6150a681614821565b81146150b157600080fd5b50565b6150bd8161486d565b81146150c857600080fd5b5056fea26469706673582212202b08e5c485d17d9e20e7da8fd001836e1c8dfd36ae5af5c7d264eedb576c2dd764736f6c63430008040033",
  "linkReferences": {},
  "deployedLinkReferences": {}
}