{
  "_format": "hh-sol-artifact-1",
  "contractName": "NFTMarketplace",
  "sourceName": "contracts/NFTMartketplace.sol",
  "abi": [
    {
      "inputs": [],
      "stateMutability": "nonpayable",
      "type": "constructor"
    },
    {
      "anonymous": false,
      "inputs": [
        {
          "indexed": true,
          "internalType": "address",
          "name": "owner",
          "type": "address"
        },
        {
          "indexed": true,
          "internalType": "address",
          "name": "approved",
          "type": "address"
        },
        {
          "indexed": true,
          "internalType": "uint256",
          "name": "tokenId",
          "type": "uint256"
        }
      ],
      "name": "Approval",
      "type": "event"
    },
    {
      "anonymous": false,
      "inputs": [
        {
          "indexed": true,
          "internalType": "address",
          "name": "owner",
          "type": "address"
        },
        {
          "indexed": true,
          "internalType": "address",
          "name": "operator",
          "type": "address"
        },
        {
          "indexed": false,
          "internalType": "bool",
          "name": "approved",
          "type": "bool"
        }
      ],
      "name": "ApprovalForAll",
      "type": "event"
    },
    {
      "anonymous": false,
      "inputs": [
        {
          "indexed": true,
          "internalType": "uint256",
          "name": "tokenId",
          "type": "uint256"
        },
        {
          "indexed": false,
          "internalType": "address",
          "name": "seller",
          "type": "address"
        },
        {
          "indexed": false,
          "internalType": "address",
          "name": "owner",
          "type": "address"
        },
        {
          "indexed": false,
          "internalType": "uint256",
          "name": "price",
          "type": "uint256"
        },
        {
          "indexed": false,
          "internalType": "bool",
          "name": "sold",
          "type": "bool"
        }
      ],
      "name": "MarketItemCreated",
      "type": "event"
    },
    {
      "anonymous": false,
      "inputs": [
        {
          "indexed": true,
          "internalType": "address",
          "name": "from",
          "type": "address"
        },
        {
          "indexed": true,
          "internalType": "address",
          "name": "to",
          "type": "address"
        },
        {
          "indexed": true,
          "internalType": "uint256",
          "name": "tokenId",
          "type": "uint256"
        }
      ],
      "name": "Transfer",
      "type": "event"
    },
    {
      "inputs": [
        {
          "internalType": "address",
          "name": "to",
          "type": "address"
        },
        {
          "internalType": "uint256",
          "name": "tokenId",
          "type": "uint256"
        }
      ],
      "name": "approve",
      "outputs": [],
      "stateMutability": "nonpayable",
      "type": "function"
    },
    {
      "inputs": [
        {
          "internalType": "address",
          "name": "owner",
          "type": "address"
        }
      ],
      "name": "balanceOf",
      "outputs": [
        {
          "internalType": "uint256",
          "name": "",
          "type": "uint256"
        }
      ],
      "stateMutability": "view",
      "type": "function"
    },
    {
      "inputs": [
        {
          "internalType": "uint256",
          "name": "tokenId",
          "type": "uint256"
        }
      ],
      "name": "createMarketSale",
      "outputs": [],
      "stateMutability": "payable",
      "type": "function"
    },
    {
      "inputs": [
        {
          "internalType": "string",
          "name": "tokenURI",
          "type": "string"
        },
        {
          "internalType": "uint256",
          "name": "price",
          "type": "uint256"
        }
      ],
      "name": "createToken",
      "outputs": [
        {
          "internalType": "uint256",
          "name": "",
          "type": "uint256"
        }
      ],
      "stateMutability": "payable",
      "type": "function"
    },
    {
      "inputs": [],
      "name": "fetchAllMarketItems",
      "outputs": [
        {
          "components": [
            {
              "internalType": "uint256",
              "name": "tokenId",
              "type": "uint256"
            },
            {
              "internalType": "address payable",
              "name": "seller",
              "type": "address"
            },
            {
              "internalType": "address payable",
              "name": "owner",
              "type": "address"
            },
            {
              "internalType": "uint256",
              "name": "price",
              "type": "uint256"
            },
            {
              "internalType": "bool",
              "name": "sold",
              "type": "bool"
            },
            {
              "internalType": "address",
              "name": "buyer",
              "type": "address"
            }
          ],
          "internalType": "struct NFTMarketplace.MarketItem[]",
          "name": "",
          "type": "tuple[]"
        }
      ],
      "stateMutability": "view",
      "type": "function"
    },
    {
      "inputs": [],
      "name": "fetchItemsListed",
      "outputs": [
        {
          "components": [
            {
              "internalType": "uint256",
              "name": "tokenId",
              "type": "uint256"
            },
            {
              "internalType": "address payable",
              "name": "seller",
              "type": "address"
            },
            {
              "internalType": "address payable",
              "name": "owner",
              "type": "address"
            },
            {
              "internalType": "uint256",
              "name": "price",
              "type": "uint256"
            },
            {
              "internalType": "bool",
              "name": "sold",
              "type": "bool"
            },
            {
              "internalType": "address",
              "name": "buyer",
              "type": "address"
            }
          ],
          "internalType": "struct NFTMarketplace.MarketItem[]",
          "name": "",
          "type": "tuple[]"
        }
      ],
      "stateMutability": "view",
      "type": "function"
    },
    {
      "inputs": [],
      "name": "fetchMarketItems",
      "outputs": [
        {
          "components": [
            {
              "internalType": "uint256",
              "name": "tokenId",
              "type": "uint256"
            },
            {
              "internalType": "address payable",
              "name": "seller",
              "type": "address"
            },
            {
              "internalType": "address payable",
              "name": "owner",
              "type": "address"
            },
            {
              "internalType": "uint256",
              "name": "price",
              "type": "uint256"
            },
            {
              "internalType": "bool",
              "name": "sold",
              "type": "bool"
            },
            {
              "internalType": "address",
              "name": "buyer",
              "type": "address"
            }
          ],
          "internalType": "struct NFTMarketplace.MarketItem[]",
          "name": "",
          "type": "tuple[]"
        }
      ],
      "stateMutability": "view",
      "type": "function"
    },
    {
      "inputs": [],
      "name": "fetchMyNFTs",
      "outputs": [
        {
          "components": [
            {
              "internalType": "uint256",
              "name": "tokenId",
              "type": "uint256"
            },
            {
              "internalType": "address payable",
              "name": "seller",
              "type": "address"
            },
            {
              "internalType": "address payable",
              "name": "owner",
              "type": "address"
            },
            {
              "internalType": "uint256",
              "name": "price",
              "type": "uint256"
            },
            {
              "internalType": "bool",
              "name": "sold",
              "type": "bool"
            },
            {
              "internalType": "address",
              "name": "buyer",
              "type": "address"
            }
          ],
          "internalType": "struct NFTMarketplace.MarketItem[]",
          "name": "",
          "type": "tuple[]"
        }
      ],
      "stateMutability": "view",
      "type": "function"
    },
    {
      "inputs": [],
      "name": "fetchSoldItems",
      "outputs": [
        {
          "components": [
            {
              "internalType": "uint256",
              "name": "tokenId",
              "type": "uint256"
            },
            {
              "internalType": "address payable",
              "name": "seller",
              "type": "address"
            },
            {
              "internalType": "address payable",
              "name": "owner",
              "type": "address"
            },
            {
              "internalType": "uint256",
              "name": "price",
              "type": "uint256"
            },
            {
              "internalType": "bool",
              "name": "sold",
              "type": "bool"
            },
            {
              "internalType": "address",
              "name": "buyer",
              "type": "address"
            }
          ],
          "internalType": "struct NFTMarketplace.MarketItem[]",
          "name": "",
          "type": "tuple[]"
        }
      ],
      "stateMutability": "view",
      "type": "function"
    },
    {
      "inputs": [
        {
          "internalType": "uint256",
          "name": "tokenId",
          "type": "uint256"
        }
      ],
      "name": "getApproved",
      "outputs": [
        {
          "internalType": "address",
          "name": "",
          "type": "address"
        }
      ],
      "stateMutability": "view",
      "type": "function"
    },
    {
      "inputs": [],
      "name": "getListingPrice",
      "outputs": [
        {
          "internalType": "uint256",
          "name": "",
          "type": "uint256"
        }
      ],
      "stateMutability": "view",
      "type": "function"
    },
    {
      "inputs": [
        {
          "internalType": "uint256",
          "name": "tokenId",
          "type": "uint256"
        }
      ],
      "name": "getTokenHistory",
      "outputs": [
        {
          "internalType": "address[]",
          "name": "",
          "type": "address[]"
        },
        {
          "internalType": "uint256[]",
          "name": "",
          "type": "uint256[]"
        }
      ],
      "stateMutability": "view",
      "type": "function"
    },
    {
      "inputs": [
        {
          "internalType": "address",
          "name": "owner",
          "type": "address"
        },
        {
          "internalType": "address",
          "name": "operator",
          "type": "address"
        }
      ],
      "name": "isApprovedForAll",
      "outputs": [
        {
          "internalType": "bool",
          "name": "",
          "type": "bool"
        }
      ],
      "stateMutability": "view",
      "type": "function"
    },
    {
      "inputs": [],
      "name": "name",
      "outputs": [
        {
          "internalType": "string",
          "name": "",
          "type": "string"
        }
      ],
      "stateMutability": "view",
      "type": "function"
    },
    {
      "inputs": [
        {
          "internalType": "uint256",
          "name": "tokenId",
          "type": "uint256"
        }
      ],
      "name": "ownerOf",
      "outputs": [
        {
          "internalType": "address",
          "name": "",
          "type": "address"
        }
      ],
      "stateMutability": "view",
      "type": "function"
    },
    {
      "inputs": [
        {
          "internalType": "uint256",
          "name": "tokenId",
          "type": "uint256"
        },
        {
          "internalType": "uint256",
          "name": "price",
          "type": "uint256"
        }
      ],
      "name": "resellToken",
      "outputs": [],
      "stateMutability": "payable",
      "type": "function"
    },
    {
      "inputs": [
        {
          "internalType": "address",
          "name": "from",
          "type": "address"
        },
        {
          "internalType": "address",
          "name": "to",
          "type": "address"
        },
        {
          "internalType": "uint256",
          "name": "tokenId",
          "type": "uint256"
        }
      ],
      "name": "safeTransferFrom",
      "outputs": [],
      "stateMutability": "nonpayable",
      "type": "function"
    },
    {
      "inputs": [
        {
          "internalType": "address",
          "name": "from",
          "type": "address"
        },
        {
          "internalType": "address",
          "name": "to",
          "type": "address"
        },
        {
          "internalType": "uint256",
          "name": "tokenId",
          "type": "uint256"
        },
        {
          "internalType": "bytes",
          "name": "_data",
          "type": "bytes"
        }
      ],
      "name": "safeTransferFrom",
      "outputs": [],
      "stateMutability": "nonpayable",
      "type": "function"
    },
    {
      "inputs": [
        {
          "internalType": "address",
          "name": "operator",
          "type": "address"
        },
        {
          "internalType": "bool",
          "name": "approved",
          "type": "bool"
        }
      ],
      "name": "setApprovalForAll",
      "outputs": [],
      "stateMutability": "nonpayable",
      "type": "function"
    },
    {
      "inputs": [
        {
          "internalType": "bytes4",
          "name": "interfaceId",
          "type": "bytes4"
        }
      ],
      "name": "supportsInterface",
      "outputs": [
        {
          "internalType": "bool",
          "name": "",
          "type": "bool"
        }
      ],
      "stateMutability": "view",
      "type": "function"
    },
    {
      "inputs": [],
      "name": "symbol",
      "outputs": [
        {
          "internalType": "string",
          "name": "",
          "type": "string"
        }
      ],
      "stateMutability": "view",
      "type": "function"
    },
    {
      "inputs": [
        {
          "internalType": "uint256",
          "name": "tokenId",
          "type": "uint256"
        }
      ],
      "name": "tokenURI",
      "outputs": [
        {
          "internalType": "string",
          "name": "",
          "type": "string"
        }
      ],
      "stateMutability": "view",
      "type": "function"
    },
    {
      "inputs": [
        {
          "internalType": "address",
          "name": "from",
          "type": "address"
        },
        {
          "internalType": "address",
          "name": "to",
          "type": "address"
        },
        {
          "internalType": "uint256",
          "name": "tokenId",
          "type": "uint256"
        }
      ],
      "name": "transferFrom",
      "outputs": [],
      "stateMutability": "nonpayable",
      "type": "function"
    },
    {
      "inputs": [
        {
          "internalType": "uint256",
          "name": "_listingPrice",
          "type": "uint256"
        }
      ],
      "name": "updateListingPrice",
      "outputs": [],
      "stateMutability": "payable",
      "type": "function"
    }
  ],
  "bytecode": "0x608060405260006009553480156200001657600080fd5b506040518060400160405280601081526020017f4d657461766572736520546f6b656e73000000000000000000000000000000008152506040518060400160405280600481526020017f4d4554540000000000000000000000000000000000000000000000000000000081525081600090805190602001906200009b929190620000fe565b508060019080519060200190620000b4929190620000fe565b50505033600a60006101000a81548173ffffffffffffffffffffffffffffffffffffffff021916908373ffffffffffffffffffffffffffffffffffffffff16021790555062000213565b8280546200010c90620001ae565b90600052602060002090601f0160209004810192826200013057600085556200017c565b82601f106200014b57805160ff19168380011785556200017c565b828001600101855582156200017c579182015b828111156200017b5782518255916020019190600101906200015e565b5b5090506200018b91906200018f565b5090565b5b80821115620001aa57600081600090555060010162000190565b5090565b60006002820490506001821680620001c757607f821691505b60208210811415620001de57620001dd620001e4565b5b50919050565b7f4e487b7100000000000000000000000000000000000000000000000000000000600052602260045260246000fd5b614fd780620002236000396000f3fe60806040526004361061014b5760003560e01c806370a08231116100b6578063be9af5361161006f578063be9af5361461049d578063c87b56dd146104b9578063c89f2cce146104f6578063dfb6452b14610521578063e219fc751461054c578063e985e9c5146105685761014b565b806370a082311461039757806372b3b620146103d457806395d89b4114610404578063a22cb4651461042f578063ae677aa314610458578063b88d4fde146104745761014b565b8063202e374011610108578063202e3740146102745780632142ae2c1461029f57806323b872dd146102dd57806342842e0e1461030657806345f8fa801461032f5780636352211e1461035a5761014b565b806301ffc9a71461015057806306fdde031461018d578063081812fc146101b8578063095ea7b3146101f55780630f08efe01461021e57806312e8558514610249575b600080fd5b34801561015c57600080fd5b5061017760048036038101906101729190613960565b6105a5565b604051610184919061417f565b60405180910390f35b34801561019957600080fd5b506101a2610687565b6040516101af919061419a565b60405180910390f35b3480156101c457600080fd5b506101df60048036038101906101da9190613a06565b610719565b6040516101ec919061407a565b60405180910390f35b34801561020157600080fd5b5061021c60048036038101906102179190613924565b61079e565b005b34801561022a57600080fd5b506102336108b6565b604051610240919061415d565b60405180910390f35b34801561025557600080fd5b5061025e610bc1565b60405161026b919061447c565b60405180910390f35b34801561028057600080fd5b50610289610bcb565b604051610296919061415d565b60405180910390f35b3480156102ab57600080fd5b506102c660048036038101906102c19190613a06565b610f5b565b6040516102d4929190614126565b60405180910390f35b3480156102e957600080fd5b5061030460048036038101906102ff919061381e565b611067565b005b34801561031257600080fd5b5061032d6004803603810190610328919061381e565b6110c7565b005b34801561033b57600080fd5b506103446110e7565b604051610351919061415d565b60405180910390f35b34801561036657600080fd5b50610381600480360381019061037c9190613a06565b611477565b60405161038e919061407a565b60405180910390f35b3480156103a357600080fd5b506103be60048036038101906103b991906137b9565b611529565b6040516103cb919061447c565b60405180910390f35b6103ee60048036038101906103e991906139b2565b6115e1565b6040516103fb919061447c565b60405180910390f35b34801561041057600080fd5b50610419611623565b604051610426919061419a565b60405180910390f35b34801561043b57600080fd5b50610456600480360381019061045191906138e8565b6116b5565b005b610472600480360381019061046d9190613a06565b6116cb565b005b34801561048057600080fd5b5061049b6004803603810190610496919061386d565b611765565b005b6104b760048036038101906104b29190613a06565b6117c7565b005b3480156104c557600080fd5b506104e060048036038101906104db9190613a06565b611b54565b6040516104ed919061419a565b60405180910390f35b34801561050257600080fd5b5061050b611ca6565b604051610518919061415d565b60405180910390f35b34801561052d57600080fd5b50610536611f9c565b604051610543919061415d565b60405180910390f35b61056660048036038101906105619190613a2f565b61220d565b005b34801561057457600080fd5b5061058f600480360381019061058a91906137e2565b612402565b60405161059c919061417f565b60405180910390f35b60007f80ac58cd000000000000000000000000000000000000000000000000000000007bffffffffffffffffffffffffffffffffffffffffffffffffffffffff1916827bffffffffffffffffffffffffffffffffffffffffffffffffffffffff1916148061067057507f5b5e139f000000000000000000000000000000000000000000000000000000007bffffffffffffffffffffffffffffffffffffffffffffffffffffffff1916827bffffffffffffffffffffffffffffffffffffffffffffffffffffffff1916145b80610680575061067f82612496565b5b9050919050565b6060600080546106969061478f565b80601f01602080910402602001604051908101604052809291908181526020018280546106c29061478f565b801561070f5780601f106106e45761010080835404028352916020019161070f565b820191906000526020600020905b8154815290600101906020018083116106f257829003601f168201915b5050505050905090565b600061072482612500565b610763576040517f08c379a000000000000000000000000000000000000000000000000000000000815260040161075a906143bc565b60405180910390fd5b6004600083815260200190815260200160002060009054906101000a900473ffffffffffffffffffffffffffffffffffffffff169050919050565b60006107a982611477565b90508073ffffffffffffffffffffffffffffffffffffffff168373ffffffffffffffffffffffffffffffffffffffff16141561081a576040517f08c379a0000000000000000000000000000000000000000000000000000000008152600401610811906143fc565b60405180910390fd5b8073ffffffffffffffffffffffffffffffffffffffff1661083961256c565b73ffffffffffffffffffffffffffffffffffffffff16148061086857506108678161086261256c565b612402565b5b6108a7576040517f08c379a000000000000000000000000000000000000000000000000000000000815260040161089e906142bc565b60405180910390fd5b6108b18383612574565b505050565b606060006108c4600761262d565b905060006108d2600861262d565b6108dc600761262d565b6108e69190614693565b90506000808267ffffffffffffffff81111561092b577f4e487b7100000000000000000000000000000000000000000000000000000000600052604160045260246000fd5b60405190808252806020026020018201604052801561096457816020015b610951613563565b8152602001906001900390816109495790505b50905060005b84811015610bb6573073ffffffffffffffffffffffffffffffffffffffff16600b600060018461099a919061460c565b815260200190815260200160002060020160009054906101000a900473ffffffffffffffffffffffffffffffffffffffff1673ffffffffffffffffffffffffffffffffffffffff161415610ba35760006001826109f7919061460c565b90506000600b60008381526020019081526020016000209050806040518060c0016040529081600082015481526020016001820160009054906101000a900473ffffffffffffffffffffffffffffffffffffffff1673ffffffffffffffffffffffffffffffffffffffff1673ffffffffffffffffffffffffffffffffffffffff1681526020016002820160009054906101000a900473ffffffffffffffffffffffffffffffffffffffff1673ffffffffffffffffffffffffffffffffffffffff1673ffffffffffffffffffffffffffffffffffffffff168152602001600382015481526020016004820160009054906101000a900460ff161515151581526020016004820160019054906101000a900473ffffffffffffffffffffffffffffffffffffffff1673ffffffffffffffffffffffffffffffffffffffff1673ffffffffffffffffffffffffffffffffffffffff1681525050848681518110610b86577f4e487b7100000000000000000000000000000000000000000000000000000000600052603260045260246000fd5b6020026020010181905250600185610b9e919061460c565b945050505b8080610bae906147f2565b91505061096a565b508094505050505090565b6000600954905090565b60606000610bd9600761262d565b905060008060005b83811015610c82573373ffffffffffffffffffffffffffffffffffffffff16600b6000600184610c11919061460c565b815260200190815260200160002060020160009054906101000a900473ffffffffffffffffffffffffffffffffffffffff1673ffffffffffffffffffffffffffffffffffffffff161415610c6f57600183610c6c919061460c565b92505b8080610c7a906147f2565b915050610be1565b5060008267ffffffffffffffff811115610cc5577f4e487b7100000000000000000000000000000000000000000000000000000000600052604160045260246000fd5b604051908082528060200260200182016040528015610cfe57816020015b610ceb613563565b815260200190600190039081610ce35790505b50905060005b84811015610f50573373ffffffffffffffffffffffffffffffffffffffff16600b6000600184610d34919061460c565b815260200190815260200160002060020160009054906101000a900473ffffffffffffffffffffffffffffffffffffffff1673ffffffffffffffffffffffffffffffffffffffff161415610f3d576000600182610d91919061460c565b90506000600b60008381526020019081526020016000209050806040518060c0016040529081600082015481526020016001820160009054906101000a900473ffffffffffffffffffffffffffffffffffffffff1673ffffffffffffffffffffffffffffffffffffffff1673ffffffffffffffffffffffffffffffffffffffff1681526020016002820160009054906101000a900473ffffffffffffffffffffffffffffffffffffffff1673ffffffffffffffffffffffffffffffffffffffff1673ffffffffffffffffffffffffffffffffffffffff168152602001600382015481526020016004820160009054906101000a900460ff161515151581526020016004820160019054906101000a900473ffffffffffffffffffffffffffffffffffffffff1673ffffffffffffffffffffffffffffffffffffffff1673ffffffffffffffffffffffffffffffffffffffff1681525050848681518110610f20577f4e487b7100000000000000000000000000000000000000000000000000000000600052603260045260246000fd5b6020026020010181905250600185610f38919061460c565b945050505b8080610f48906147f2565b915050610d04565b508094505050505090565b606080600c6000848152602001908152602001600020600d60008581526020019081526020016000208180548060200260200160405190810160405280929190818152602001828054801561100557602002820191906000526020600020905b8160009054906101000a900473ffffffffffffffffffffffffffffffffffffffff1673ffffffffffffffffffffffffffffffffffffffff1681526020019060010190808311610fbb575b505050505091508080548060200260200160405190810160405280929190818152602001828054801561105757602002820191906000526020600020905b815481526020019060010190808311611043575b5050505050905091509150915091565b61107861107261256c565b8261263b565b6110b7576040517f08c379a00000000000000000000000000000000000000000000000000000000081526004016110ae9061443c565b60405180910390fd5b6110c2838383612719565b505050565b6110e283838360405180602001604052806000815250611765565b505050565b606060006110f5600761262d565b905060008060005b8381101561119e573373ffffffffffffffffffffffffffffffffffffffff16600b600060018461112d919061460c565b815260200190815260200160002060010160009054906101000a900473ffffffffffffffffffffffffffffffffffffffff1673ffffffffffffffffffffffffffffffffffffffff16141561118b57600183611188919061460c565b92505b8080611196906147f2565b9150506110fd565b5060008267ffffffffffffffff8111156111e1577f4e487b7100000000000000000000000000000000000000000000000000000000600052604160045260246000fd5b60405190808252806020026020018201604052801561121a57816020015b611207613563565b8152602001906001900390816111ff5790505b50905060005b8481101561146c573373ffffffffffffffffffffffffffffffffffffffff16600b6000600184611250919061460c565b815260200190815260200160002060010160009054906101000a900473ffffffffffffffffffffffffffffffffffffffff1673ffffffffffffffffffffffffffffffffffffffff1614156114595760006001826112ad919061460c565b90506000600b60008381526020019081526020016000209050806040518060c0016040529081600082015481526020016001820160009054906101000a900473ffffffffffffffffffffffffffffffffffffffff1673ffffffffffffffffffffffffffffffffffffffff1673ffffffffffffffffffffffffffffffffffffffff1681526020016002820160009054906101000a900473ffffffffffffffffffffffffffffffffffffffff1673ffffffffffffffffffffffffffffffffffffffff1673ffffffffffffffffffffffffffffffffffffffff168152602001600382015481526020016004820160009054906101000a900460ff161515151581526020016004820160019054906101000a900473ffffffffffffffffffffffffffffffffffffffff1673ffffffffffffffffffffffffffffffffffffffff1673ffffffffffffffffffffffffffffffffffffffff168152505084868151811061143c577f4e487b7100000000000000000000000000000000000000000000000000000000600052603260045260246000fd5b6020026020010181905250600185611454919061460c565b945050505b8080611464906147f2565b915050611220565b508094505050505090565b6000806002600084815260200190815260200160002060009054906101000a900473ffffffffffffffffffffffffffffffffffffffff169050600073ffffffffffffffffffffffffffffffffffffffff168173ffffffffffffffffffffffffffffffffffffffff161415611520576040517f08c379a0000000000000000000000000000000000000000000000000000000008152600401611517906142fc565b60405180910390fd5b80915050919050565b60008073ffffffffffffffffffffffffffffffffffffffff168273ffffffffffffffffffffffffffffffffffffffff16141561159a576040517f08c379a0000000000000000000000000000000000000000000000000000000008152600401611591906142dc565b60405180910390fd5b600360008373ffffffffffffffffffffffffffffffffffffffff1673ffffffffffffffffffffffffffffffffffffffff168152602001908152602001600020549050919050565b60006115ed6007612980565b60006115f9600761262d565b90506116053382612996565b61160f8185612b70565b6116198184612be4565b8091505092915050565b6060600180546116329061478f565b80601f016020809104026020016040519081016040528092919081815260200182805461165e9061478f565b80156116ab5780601f10611680576101008083540402835291602001916116ab565b820191906000526020600020905b81548152906001019060200180831161168e57829003601f168201915b5050505050905090565b6116c76116c061256c565b8383612f0f565b5050565b3373ffffffffffffffffffffffffffffffffffffffff16600a60009054906101000a900473ffffffffffffffffffffffffffffffffffffffff1673ffffffffffffffffffffffffffffffffffffffff161461175b576040517f08c379a00000000000000000000000000000000000000000000000000000000081526004016117529061445c565b60405180910390fd5b8060098190555050565b61177661177061256c565b8361263b565b6117b5576040517f08c379a00000000000000000000000000000000000000000000000000000000081526004016117ac9061443c565b60405180910390fd5b6117c18484848461307c565b50505050565b6000600b60008381526020019081526020016000206003015490506000600b600084815260200190815260200160002060010160009054906101000a900473ffffffffffffffffffffffffffffffffffffffff16905081341461185f576040517f08c379a00000000000000000000000000000000000000000000000000000000081526004016118569061433c565b60405180910390fd5b33600b600085815260200190815260200160002060020160006101000a81548173ffffffffffffffffffffffffffffffffffffffff021916908373ffffffffffffffffffffffffffffffffffffffff1602179055506001600b600085815260200190815260200160002060040160006101000a81548160ff0219169083151502179055506000600b600085815260200190815260200160002060010160006101000a81548173ffffffffffffffffffffffffffffffffffffffff021916908373ffffffffffffffffffffffffffffffffffffffff16021790555033600b600085815260200190815260200160002060040160016101000a81548173ffffffffffffffffffffffffffffffffffffffff021916908373ffffffffffffffffffffffffffffffffffffffff1602179055506119986008612980565b6119a3303385612719565b600a60009054906101000a900473ffffffffffffffffffffffffffffffffffffffff1673ffffffffffffffffffffffffffffffffffffffff166108fc6009549081150290604051600060405180830381858888f19350505050158015611a0d573d6000803e3d6000fd5b508073ffffffffffffffffffffffffffffffffffffffff166108fc349081150290604051600060405180830381858888f19350505050158015611a54573d6000803e3d6000fd5b50600c6000848152602001908152602001600020600b600085815260200190815260200160002060020160009054906101000a900473ffffffffffffffffffffffffffffffffffffffff169080600181540180825580915050600190039060005260206000200160009091909190916101000a81548173ffffffffffffffffffffffffffffffffffffffff021916908373ffffffffffffffffffffffffffffffffffffffff160217905550600d6000848152602001908152602001600020600b6000858152602001908152602001600020600301549080600181540180825580915050600190039060005260206000200160009091909190915055505050565b6060611b5f82612500565b611b9e576040517f08c379a0000000000000000000000000000000000000000000000000000000008152600401611b959061437c565b60405180910390fd5b6000600660008481526020019081526020016000208054611bbe9061478f565b80601f0160208091040260200160405190810160405280929190818152602001828054611bea9061478f565b8015611c375780601f10611c0c57610100808354040283529160200191611c37565b820191906000526020600020905b815481529060010190602001808311611c1a57829003601f168201915b505050505090506000611c486130d8565b9050600081511415611c5e578192505050611ca1565b600082511115611c93578082604051602001611c7b929190614056565b60405160208183030381529060405292505050611ca1565b611c9c846130ef565b925050505b919050565b60606000611cb4600761262d565b90506000611cc2600861262d565b90506000808267ffffffffffffffff811115611d07577f4e487b7100000000000000000000000000000000000000000000000000000000600052604160045260246000fd5b604051908082528060200260200182016040528015611d4057816020015b611d2d613563565b815260200190600190039081611d255790505b50905060005b84811015611f91573073ffffffffffffffffffffffffffffffffffffffff16600b6000600184611d76919061460c565b815260200190815260200160002060020160009054906101000a900473ffffffffffffffffffffffffffffffffffffffff1673ffffffffffffffffffffffffffffffffffffffff1614611f7e576000600182611dd2919061460c565b90506000600b60008381526020019081526020016000209050806040518060c0016040529081600082015481526020016001820160009054906101000a900473ffffffffffffffffffffffffffffffffffffffff1673ffffffffffffffffffffffffffffffffffffffff1673ffffffffffffffffffffffffffffffffffffffff1681526020016002820160009054906101000a900473ffffffffffffffffffffffffffffffffffffffff1673ffffffffffffffffffffffffffffffffffffffff1673ffffffffffffffffffffffffffffffffffffffff168152602001600382015481526020016004820160009054906101000a900460ff161515151581526020016004820160019054906101000a900473ffffffffffffffffffffffffffffffffffffffff1673ffffffffffffffffffffffffffffffffffffffff1673ffffffffffffffffffffffffffffffffffffffff1681525050848681518110611f61577f4e487b7100000000000000000000000000000000000000000000000000000000600052603260045260246000fd5b6020026020010181905250600185611f79919061460c565b945050505b8080611f89906147f2565b915050611d46565b508094505050505090565b60606000611faa600761262d565b90506000808267ffffffffffffffff811115611fef577f4e487b7100000000000000000000000000000000000000000000000000000000600052604160045260246000fd5b60405190808252806020026020018201604052801561202857816020015b612015613563565b81526020019060019003908161200d5790505b50905060005b83811015612203576000600182612045919061460c565b90506000600b60008381526020019081526020016000209050806040518060c0016040529081600082015481526020016001820160009054906101000a900473ffffffffffffffffffffffffffffffffffffffff1673ffffffffffffffffffffffffffffffffffffffff1673ffffffffffffffffffffffffffffffffffffffff1681526020016002820160009054906101000a900473ffffffffffffffffffffffffffffffffffffffff1673ffffffffffffffffffffffffffffffffffffffff1673ffffffffffffffffffffffffffffffffffffffff168152602001600382015481526020016004820160009054906101000a900460ff161515151581526020016004820160019054906101000a900473ffffffffffffffffffffffffffffffffffffffff1673ffffffffffffffffffffffffffffffffffffffff1673ffffffffffffffffffffffffffffffffffffffff16815250508486815181106121d4577f4e487b7100000000000000000000000000000000000000000000000000000000600052603260045260246000fd5b60200260200101819052506001856121ec919061460c565b9450505080806121fb906147f2565b91505061202e565b5080935050505090565b3373ffffffffffffffffffffffffffffffffffffffff16600b600084815260200190815260200160002060020160009054906101000a900473ffffffffffffffffffffffffffffffffffffffff1673ffffffffffffffffffffffffffffffffffffffff16146122b1576040517f08c379a00000000000000000000000000000000000000000000000000000000081526004016122a89061439c565b60405180910390fd5b60095434146122f5576040517f08c379a00000000000000000000000000000000000000000000000000000000081526004016122ec9061441c565b60405180910390fd5b6000600b600084815260200190815260200160002060040160006101000a81548160ff02191690831515021790555080600b60008481526020019081526020016000206003018190555033600b600084815260200190815260200160002060010160006101000a81548173ffffffffffffffffffffffffffffffffffffffff021916908373ffffffffffffffffffffffffffffffffffffffff16021790555030600b600084815260200190815260200160002060020160006101000a81548173ffffffffffffffffffffffffffffffffffffffff021916908373ffffffffffffffffffffffffffffffffffffffff1602179055506123f36008613196565b6123fe333084612719565b5050565b6000600560008473ffffffffffffffffffffffffffffffffffffffff1673ffffffffffffffffffffffffffffffffffffffff16815260200190815260200160002060008373ffffffffffffffffffffffffffffffffffffffff1673ffffffffffffffffffffffffffffffffffffffff16815260200190815260200160002060009054906101000a900460ff16905092915050565b60007f01ffc9a7000000000000000000000000000000000000000000000000000000007bffffffffffffffffffffffffffffffffffffffffffffffffffffffff1916827bffffffffffffffffffffffffffffffffffffffffffffffffffffffff1916149050919050565b60008073ffffffffffffffffffffffffffffffffffffffff166002600084815260200190815260200160002060009054906101000a900473ffffffffffffffffffffffffffffffffffffffff1673ffffffffffffffffffffffffffffffffffffffff1614159050919050565b600033905090565b816004600083815260200190815260200160002060006101000a81548173ffffffffffffffffffffffffffffffffffffffff021916908373ffffffffffffffffffffffffffffffffffffffff160217905550808273ffffffffffffffffffffffffffffffffffffffff166125e783611477565b73ffffffffffffffffffffffffffffffffffffffff167f8c5be1e5ebec7d5bd14f71427d1e84f3dd0314c0f7b2291e5b200ac8c7c3b92560405160405180910390a45050565b600081600001549050919050565b600061264682612500565b612685576040517f08c379a000000000000000000000000000000000000000000000000000000000815260040161267c9061429c565b60405180910390fd5b600061269083611477565b90508073ffffffffffffffffffffffffffffffffffffffff168473ffffffffffffffffffffffffffffffffffffffff1614806126ff57508373ffffffffffffffffffffffffffffffffffffffff166126e784610719565b73ffffffffffffffffffffffffffffffffffffffff16145b80612710575061270f8185612402565b5b91505092915050565b8273ffffffffffffffffffffffffffffffffffffffff1661273982611477565b73ffffffffffffffffffffffffffffffffffffffff161461278f576040517f08c379a00000000000000000000000000000000000000000000000000000000081526004016127869061421c565b60405180910390fd5b600073ffffffffffffffffffffffffffffffffffffffff168273ffffffffffffffffffffffffffffffffffffffff1614156127ff576040517f08c379a00000000000000000000000000000000000000000000000000000000081526004016127f69061425c565b60405180910390fd5b61280a8383836131f2565b612815600082612574565b6001600360008573ffffffffffffffffffffffffffffffffffffffff1673ffffffffffffffffffffffffffffffffffffffff16815260200190815260200160002060008282546128659190614693565b925050819055506001600360008473ffffffffffffffffffffffffffffffffffffffff1673ffffffffffffffffffffffffffffffffffffffff16815260200190815260200160002060008282546128bc919061460c565b92505081905550816002600083815260200190815260200160002060006101000a81548173ffffffffffffffffffffffffffffffffffffffff021916908373ffffffffffffffffffffffffffffffffffffffff160217905550808273ffffffffffffffffffffffffffffffffffffffff168473ffffffffffffffffffffffffffffffffffffffff167fddf252ad1be2c89b69c2b068fc378daa952ba7f163c4a11628f55a4df523b3ef60405160405180910390a461297b8383836131f7565b505050565b6001816000016000828254019250508190555050565b600073ffffffffffffffffffffffffffffffffffffffff168273ffffffffffffffffffffffffffffffffffffffff161415612a06576040517f08c379a00000000000000000000000000000000000000000000000000000000081526004016129fd9061435c565b60405180910390fd5b612a0f81612500565b15612a4f576040517f08c379a0000000000000000000000000000000000000000000000000000000008152600401612a469061423c565b60405180910390fd5b612a5b600083836131f2565b6001600360008473ffffffffffffffffffffffffffffffffffffffff1673ffffffffffffffffffffffffffffffffffffffff1681526020019081526020016000206000828254612aab919061460c565b92505081905550816002600083815260200190815260200160002060006101000a81548173ffffffffffffffffffffffffffffffffffffffff021916908373ffffffffffffffffffffffffffffffffffffffff160217905550808273ffffffffffffffffffffffffffffffffffffffff16600073ffffffffffffffffffffffffffffffffffffffff167fddf252ad1be2c89b69c2b068fc378daa952ba7f163c4a11628f55a4df523b3ef60405160405180910390a4612b6c600083836131f7565b5050565b612b7982612500565b612bb8576040517f08c379a0000000000000000000000000000000000000000000000000000000008152600401612baf9061431c565b60405180910390fd5b80600660008481526020019081526020016000209080519060200190612bdf9291906135dd565b505050565b60008111612c27576040517f08c379a0000000000000000000000000000000000000000000000000000000008152600401612c1e906141fc565b60405180910390fd5b6009543414612c6b576040517f08c379a0000000000000000000000000000000000000000000000000000000008152600401612c629061441c565b60405180910390fd5b6040518060c001604052808381526020013373ffffffffffffffffffffffffffffffffffffffff1681526020013073ffffffffffffffffffffffffffffffffffffffff168152602001828152602001600015158152602001600073ffffffffffffffffffffffffffffffffffffffff16815250600b60008481526020019081526020016000206000820151816000015560208201518160010160006101000a81548173ffffffffffffffffffffffffffffffffffffffff021916908373ffffffffffffffffffffffffffffffffffffffff16021790555060408201518160020160006101000a81548173ffffffffffffffffffffffffffffffffffffffff021916908373ffffffffffffffffffffffffffffffffffffffff1602179055506060820151816003015560808201518160040160006101000a81548160ff02191690831515021790555060a08201518160040160016101000a81548173ffffffffffffffffffffffffffffffffffffffff021916908373ffffffffffffffffffffffffffffffffffffffff160217905550905050600c6000838152602001908152602001600020339080600181540180825580915050600190039060005260206000200160009091909190916101000a81548173ffffffffffffffffffffffffffffffffffffffff021916908373ffffffffffffffffffffffffffffffffffffffff160217905550600d6000838152602001908152602001600020600b6000848152602001908152602001600020600301549080600181540180825580915050600190039060005260206000200160009091909190915055612ecc333084612719565b817fb640004f1d14576d0c209e240cad0410e0d8c0c33a09375861fbadae2588a98d3330846000604051612f039493929190614095565b60405180910390a25050565b8173ffffffffffffffffffffffffffffffffffffffff168373ffffffffffffffffffffffffffffffffffffffff161415612f7e576040517f08c379a0000000000000000000000000000000000000000000000000000000008152600401612f759061427c565b60405180910390fd5b80600560008573ffffffffffffffffffffffffffffffffffffffff1673ffffffffffffffffffffffffffffffffffffffff16815260200190815260200160002060008473ffffffffffffffffffffffffffffffffffffffff1673ffffffffffffffffffffffffffffffffffffffff16815260200190815260200160002060006101000a81548160ff0219169083151502179055508173ffffffffffffffffffffffffffffffffffffffff168373ffffffffffffffffffffffffffffffffffffffff167f17307eab39ab6107e8899845ad3d59bd9653f200f220920489ca2b5937696c318360405161306f919061417f565b60405180910390a3505050565b613087848484612719565b613093848484846131fc565b6130d2576040517f08c379a00000000000000000000000000000000000000000000000000000000081526004016130c9906141dc565b60405180910390fd5b50505050565b606060405180602001604052806000815250905090565b60606130fa82612500565b613139576040517f08c379a0000000000000000000000000000000000000000000000000000000008152600401613130906143dc565b60405180910390fd5b60006131436130d8565b90506000815111613163576040518060200160405280600081525061318e565b8061316d84613393565b60405160200161317e929190614056565b6040516020818303038152906040525b915050919050565b600081600001549050600081116131e2576040517f08c379a00000000000000000000000000000000000000000000000000000000081526004016131d9906141bc565b60405180910390fd5b6001810382600001819055505050565b505050565b505050565b600061321d8473ffffffffffffffffffffffffffffffffffffffff16613540565b15613386578373ffffffffffffffffffffffffffffffffffffffff1663150b7a0261324661256c565b8786866040518563ffffffff1660e01b815260040161326894939291906140da565b602060405180830381600087803b15801561328257600080fd5b505af19250505080156132b357506040513d601f19601f820116820180604052508101906132b09190613989565b60015b613336573d80600081146132e3576040519150601f19603f3d011682016040523d82523d6000602084013e6132e8565b606091505b5060008151141561332e576040517f08c379a0000000000000000000000000000000000000000000000000000000008152600401613325906141dc565b60405180910390fd5b805181602001fd5b63150b7a0260e01b7bffffffffffffffffffffffffffffffffffffffffffffffffffffffff1916817bffffffffffffffffffffffffffffffffffffffffffffffffffffffff19161491505061338b565b600190505b949350505050565b606060008214156133db576040518060400160405280600181526020017f3000000000000000000000000000000000000000000000000000000000000000815250905061353b565b600082905060005b6000821461340d5780806133f6906147f2565b915050600a826134069190614662565b91506133e3565b60008167ffffffffffffffff81111561344f577f4e487b7100000000000000000000000000000000000000000000000000000000600052604160045260246000fd5b6040519080825280601f01601f1916602001820160405280156134815781602001600182028036833780820191505090505b5090505b600085146135345760018261349a9190614693565b9150600a856134a9919061483b565b60306134b5919061460c565b60f81b8183815181106134f1577f4e487b7100000000000000000000000000000000000000000000000000000000600052603260045260246000fd5b60200101907effffffffffffffffffffffffffffffffffffffffffffffffffffffffffffff1916908160001a905350600a8561352d9190614662565b9450613485565b8093505050505b919050565b6000808273ffffffffffffffffffffffffffffffffffffffff163b119050919050565b6040518060c0016040528060008152602001600073ffffffffffffffffffffffffffffffffffffffff168152602001600073ffffffffffffffffffffffffffffffffffffffff16815260200160008152602001600015158152602001600073ffffffffffffffffffffffffffffffffffffffff1681525090565b8280546135e99061478f565b90600052602060002090601f01602090048101928261360b5760008555613652565b82601f1061362457805160ff1916838001178555613652565b82800160010185558215613652579182015b82811115613651578251825591602001919060010190613636565b5b50905061365f9190613663565b5090565b5b8082111561367c576000816000905550600101613664565b5090565b600061369361368e846144bc565b614497565b9050828152602081018484840111156136ab57600080fd5b6136b684828561474d565b509392505050565b60006136d16136cc846144ed565b614497565b9050828152602081018484840111156136e957600080fd5b6136f484828561474d565b509392505050565b60008135905061370b81614f45565b92915050565b60008135905061372081614f5c565b92915050565b60008135905061373581614f73565b92915050565b60008151905061374a81614f73565b92915050565b600082601f83011261376157600080fd5b8135613771848260208601613680565b91505092915050565b600082601f83011261378b57600080fd5b813561379b8482602086016136be565b91505092915050565b6000813590506137b381614f8a565b92915050565b6000602082840312156137cb57600080fd5b60006137d9848285016136fc565b91505092915050565b600080604083850312156137f557600080fd5b6000613803858286016136fc565b9250506020613814858286016136fc565b9150509250929050565b60008060006060848603121561383357600080fd5b6000613841868287016136fc565b9350506020613852868287016136fc565b9250506040613863868287016137a4565b9150509250925092565b6000806000806080858703121561388357600080fd5b6000613891878288016136fc565b94505060206138a2878288016136fc565b93505060406138b3878288016137a4565b925050606085013567ffffffffffffffff8111156138d057600080fd5b6138dc87828801613750565b91505092959194509250565b600080604083850312156138fb57600080fd5b6000613909858286016136fc565b925050602061391a85828601613711565b9150509250929050565b6000806040838503121561393757600080fd5b6000613945858286016136fc565b9250506020613956858286016137a4565b9150509250929050565b60006020828403121561397257600080fd5b600061398084828501613726565b91505092915050565b60006020828403121561399b57600080fd5b60006139a98482850161373b565b91505092915050565b600080604083850312156139c557600080fd5b600083013567ffffffffffffffff8111156139df57600080fd5b6139eb8582860161377a565b92505060206139fc858286016137a4565b9150509250929050565b600060208284031215613a1857600080fd5b6000613a26848285016137a4565b91505092915050565b60008060408385031215613a4257600080fd5b6000613a50858286016137a4565b9250506020613a61858286016137a4565b9150509250929050565b6000613a778383613ac2565b60208301905092915050565b6000613a8f8383613fbd565b60c08301905092915050565b6000613aa78383614038565b60208301905092915050565b613abc816146d9565b82525050565b613acb816146c7565b82525050565b613ada816146c7565b82525050565b6000613aeb8261454e565b613af581856145ac565b9350613b008361451e565b8060005b83811015613b31578151613b188882613a6b565b9750613b2383614585565b925050600181019050613b04565b5085935050505092915050565b6000613b4982614559565b613b5381856145bd565b9350613b5e8361452e565b8060005b83811015613b8f578151613b768882613a83565b9750613b8183614592565b925050600181019050613b62565b5085935050505092915050565b6000613ba782614564565b613bb181856145ce565b9350613bbc8361453e565b8060005b83811015613bed578151613bd48882613a9b565b9750613bdf8361459f565b925050600181019050613bc0565b5085935050505092915050565b613c03816146eb565b82525050565b613c12816146eb565b82525050565b6000613c238261456f565b613c2d81856145df565b9350613c3d81856020860161475c565b613c4681614928565b840191505092915050565b6000613c5c8261457a565b613c6681856145f0565b9350613c7681856020860161475c565b613c7f81614928565b840191505092915050565b6000613c958261457a565b613c9f8185614601565b9350613caf81856020860161475c565b80840191505092915050565b6000613cc8601b836145f0565b9150613cd382614939565b602082019050919050565b6000613ceb6032836145f0565b9150613cf682614962565b604082019050919050565b6000613d0e601c836145f0565b9150613d19826149b1565b602082019050919050565b6000613d316025836145f0565b9150613d3c826149da565b604082019050919050565b6000613d54601c836145f0565b9150613d5f82614a29565b602082019050919050565b6000613d776024836145f0565b9150613d8282614a52565b604082019050919050565b6000613d9a6019836145f0565b9150613da582614aa1565b602082019050919050565b6000613dbd602c836145f0565b9150613dc882614aca565b604082019050919050565b6000613de06038836145f0565b9150613deb82614b19565b604082019050919050565b6000613e03602a836145f0565b9150613e0e82614b68565b604082019050919050565b6000613e266029836145f0565b9150613e3182614bb7565b604082019050919050565b6000613e49602e836145f0565b9150613e5482614c06565b604082019050919050565b6000613e6c6040836145f0565b9150613e7782614c55565b604082019050919050565b6000613e8f6020836145f0565b9150613e9a82614ca4565b602082019050919050565b6000613eb26031836145f0565b9150613ebd82614ccd565b604082019050919050565b6000613ed5602a836145f0565b9150613ee082614d1c565b604082019050919050565b6000613ef8602c836145f0565b9150613f0382614d6b565b604082019050919050565b6000613f1b602f836145f0565b9150613f2682614dba565b604082019050919050565b6000613f3e6021836145f0565b9150613f4982614e09565b604082019050919050565b6000613f616024836145f0565b9150613f6c82614e58565b604082019050919050565b6000613f846031836145f0565b9150613f8f82614ea7565b604082019050919050565b6000613fa76030836145f0565b9150613fb282614ef6565b604082019050919050565b60c082016000820151613fd36000850182614038565b506020820151613fe66020850182613ab3565b506040820151613ff96040850182613ab3565b50606082015161400c6060850182614038565b50608082015161401f6080850182613bfa565b5060a082015161403260a0850182613ac2565b50505050565b61404181614743565b82525050565b61405081614743565b82525050565b60006140628285613c8a565b915061406e8284613c8a565b91508190509392505050565b600060208201905061408f6000830184613ad1565b92915050565b60006080820190506140aa6000830187613ad1565b6140b76020830186613ad1565b6140c46040830185614047565b6140d16060830184613c09565b95945050505050565b60006080820190506140ef6000830187613ad1565b6140fc6020830186613ad1565b6141096040830185614047565b818103606083015261411b8184613c18565b905095945050505050565b600060408201905081810360008301526141408185613ae0565b905081810360208301526141548184613b9c565b90509392505050565b600060208201905081810360008301526141778184613b3e565b905092915050565b60006020820190506141946000830184613c09565b92915050565b600060208201905081810360008301526141b48184613c51565b905092915050565b600060208201905081810360008301526141d581613cbb565b9050919050565b600060208201905081810360008301526141f581613cde565b9050919050565b6000602082019050818103600083015261421581613d01565b9050919050565b6000602082019050818103600083015261423581613d24565b9050919050565b6000602082019050818103600083015261425581613d47565b9050919050565b6000602082019050818103600083015261427581613d6a565b9050919050565b6000602082019050818103600083015261429581613d8d565b9050919050565b600060208201905081810360008301526142b581613db0565b9050919050565b600060208201905081810360008301526142d581613dd3565b9050919050565b600060208201905081810360008301526142f581613df6565b9050919050565b6000602082019050818103600083015261431581613e19565b9050919050565b6000602082019050818103600083015261433581613e3c565b9050919050565b6000602082019050818103600083015261435581613e5f565b9050919050565b6000602082019050818103600083015261437581613e82565b9050919050565b6000602082019050818103600083015261439581613ea5565b9050919050565b600060208201905081810360008301526143b581613ec8565b9050919050565b600060208201905081810360008301526143d581613eeb565b9050919050565b600060208201905081810360008301526143f581613f0e565b9050919050565b6000602082019050818103600083015261441581613f31565b9050919050565b6000602082019050818103600083015261443581613f54565b9050919050565b6000602082019050818103600083015261445581613f77565b9050919050565b6000602082019050818103600083015261447581613f9a565b9050919050565b60006020820190506144916000830184614047565b92915050565b60006144a16144b2565b90506144ad82826147c1565b919050565b6000604051905090565b600067ffffffffffffffff8211156144d7576144d66148f9565b5b6144e082614928565b9050602081019050919050565b600067ffffffffffffffff821115614508576145076148f9565b5b61451182614928565b9050602081019050919050565b6000819050602082019050919050565b6000819050602082019050919050565b6000819050602082019050919050565b600081519050919050565b600081519050919050565b600081519050919050565b600081519050919050565b600081519050919050565b6000602082019050919050565b6000602082019050919050565b6000602082019050919050565b600082825260208201905092915050565b600082825260208201905092915050565b600082825260208201905092915050565b600082825260208201905092915050565b600082825260208201905092915050565b600081905092915050565b600061461782614743565b915061462283614743565b9250827fffffffffffffffffffffffffffffffffffffffffffffffffffffffffffffffff038211156146575761465661486c565b5b828201905092915050565b600061466d82614743565b915061467883614743565b9250826146885761468761489b565b5b828204905092915050565b600061469e82614743565b91506146a983614743565b9250828210156146bc576146bb61486c565b5b828203905092915050565b60006146d282614723565b9050919050565b60006146e482614723565b9050919050565b60008115159050919050565b60007fffffffff0000000000000000000000000000000000000000000000000000000082169050919050565b600073ffffffffffffffffffffffffffffffffffffffff82169050919050565b6000819050919050565b82818337600083830152505050565b60005b8381101561477a57808201518184015260208101905061475f565b83811115614789576000848401525b50505050565b600060028204905060018216806147a757607f821691505b602082108114156147bb576147ba6148ca565b5b50919050565b6147ca82614928565b810181811067ffffffffffffffff821117156147e9576147e86148f9565b5b80604052505050565b60006147fd82614743565b91507fffffffffffffffffffffffffffffffffffffffffffffffffffffffffffffffff8214156148305761482f61486c565b5b600182019050919050565b600061484682614743565b915061485183614743565b9250826148615761486061489b565b5b828206905092915050565b7f4e487b7100000000000000000000000000000000000000000000000000000000600052601160045260246000fd5b7f4e487b7100000000000000000000000000000000000000000000000000000000600052601260045260246000fd5b7f4e487b7100000000000000000000000000000000000000000000000000000000600052602260045260246000fd5b7f4e487b7100000000000000000000000000000000000000000000000000000000600052604160045260246000fd5b6000601f19601f8301169050919050565b7f436f756e7465723a2064656372656d656e74206f766572666c6f770000000000600082015250565b7f4552433732313a207472616e7366657220746f206e6f6e20455243373231526560008201527f63656976657220696d706c656d656e7465720000000000000000000000000000602082015250565b7f5072696365206d757374206265206174206c6561737420312045544800000000600082015250565b7f4552433732313a207472616e736665722066726f6d20696e636f72726563742060008201527f6f776e6572000000000000000000000000000000000000000000000000000000602082015250565b7f4552433732313a20746f6b656e20616c7265616479206d696e74656400000000600082015250565b7f4552433732313a207472616e7366657220746f20746865207a65726f2061646460008201527f7265737300000000000000000000000000000000000000000000000000000000602082015250565b7f4552433732313a20617070726f766520746f2063616c6c657200000000000000600082015250565b7f4552433732313a206f70657261746f7220717565727920666f72206e6f6e657860008201527f697374656e7420746f6b656e0000000000000000000000000000000000000000602082015250565b7f4552433732313a20617070726f76652063616c6c6572206973206e6f74206f7760008201527f6e6572206e6f7220617070726f76656420666f7220616c6c0000000000000000602082015250565b7f4552433732313a2062616c616e636520717565727920666f7220746865207a6560008201527f726f206164647265737300000000000000000000000000000000000000000000602082015250565b7f4552433732313a206f776e657220717565727920666f72206e6f6e657869737460008201527f656e7420746f6b656e0000000000000000000000000000000000000000000000602082015250565b7f45524337323155524953746f726167653a2055524920736574206f66206e6f6e60008201527f6578697374656e7420746f6b656e000000000000000000000000000000000000602082015250565b7f506c65617365207375626d6974207468652061736b696e67207072696365206960008201527f6e206f7264657220746f20636f6d706c65746520746865207075726368617365602082015250565b7f4552433732313a206d696e7420746f20746865207a65726f2061646472657373600082015250565b7f45524337323155524953746f726167653a2055524920717565727920666f722060008201527f6e6f6e6578697374656e7420746f6b656e000000000000000000000000000000602082015250565b7f4f6e6c79206974656d206f776e65722063616e20706572666f726d207468697360008201527f206f7065726174696f6e00000000000000000000000000000000000000000000602082015250565b7f4552433732313a20617070726f76656420717565727920666f72206e6f6e657860008201527f697374656e7420746f6b656e0000000000000000000000000000000000000000602082015250565b7f4552433732314d657461646174613a2055524920717565727920666f72206e6f60008201527f6e6578697374656e7420746f6b656e0000000000000000000000000000000000602082015250565b7f4552433732313a20617070726f76616c20746f2063757272656e74206f776e6560008201527f7200000000000000000000000000000000000000000000000000000000000000602082015250565b7f5072696365206d75737420626520657175616c20746f206c697374696e67207060008201527f7269636500000000000000000000000000000000000000000000000000000000602082015250565b7f4552433732313a207472616e736665722063616c6c6572206973206e6f74206f60008201527f776e6572206e6f7220617070726f766564000000000000000000000000000000602082015250565b7f4f6e6c79206d61726b6574706c616365206f776e65722063616e20757064617460008201527f65206c697374696e672070726963652e00000000000000000000000000000000602082015250565b614f4e816146c7565b8114614f5957600080fd5b50565b614f65816146eb565b8114614f7057600080fd5b50565b614f7c816146f7565b8114614f8757600080fd5b50565b614f9381614743565b8114614f9e57600080fd5b5056fea2646970667358221220ba2b1c359825bf535702e572951d70962abd0ec8bc591376cb0ebb563bd87d7c64736f6c63430008040033",
  "linkReferences": {},
  "deployedLinkReferences": {}
}